{
  "address": "0x851356ae760d987E095750cCeb3bC6014560891C",
  "abi": [
    {
      "inputs": [
        {
          "internalType": "contract IAuthority",
          "name": "_authority",
          "type": "address"
        },
        {
          "internalType": "contract IERC20",
          "name": "_req",
          "type": "address"
        },
        {
          "internalType": "contract IgREQ",
          "name": "_greq",
          "type": "address"
        },
        {
          "internalType": "contract IStaking",
          "name": "_staking",
          "type": "address"
        },
        {
          "internalType": "contract ITreasury",
          "name": "_treasury",
          "type": "address"
        }
      ],
      "stateMutability": "nonpayable",
      "type": "constructor"
    },
    {
      "anonymous": false,
      "inputs": [
        {
          "indexed": true,
          "internalType": "contract IAuthority",
          "name": "authority",
          "type": "address"
        }
      ],
      "name": "AuthorityUpdated",
      "type": "event"
    },
    {
      "anonymous": false,
      "inputs": [
        {
          "indexed": true,
          "internalType": "uint256",
          "name": "id",
          "type": "uint256"
        },
        {
          "indexed": false,
          "internalType": "uint256",
          "name": "amount",
          "type": "uint256"
        },
        {
          "indexed": false,
          "internalType": "uint256",
          "name": "price",
          "type": "uint256"
        }
      ],
      "name": "Bond",
      "type": "event"
    },
    {
      "anonymous": false,
      "inputs": [
        {
          "indexed": true,
          "internalType": "uint256",
          "name": "id",
          "type": "uint256"
        }
      ],
      "name": "CloseMarket",
      "type": "event"
    },
    {
      "anonymous": false,
      "inputs": [
        {
          "indexed": true,
          "internalType": "uint256",
          "name": "id",
          "type": "uint256"
        },
        {
          "indexed": true,
          "internalType": "address",
          "name": "baseToken",
          "type": "address"
        },
        {
          "indexed": true,
          "internalType": "address",
          "name": "quoteToken",
          "type": "address"
        },
        {
          "indexed": false,
          "internalType": "uint256",
          "name": "initialPrice",
          "type": "uint256"
        }
      ],
      "name": "CreateMarket",
      "type": "event"
    },
    {
      "anonymous": false,
      "inputs": [
        {
          "indexed": true,
          "internalType": "uint256",
          "name": "id",
          "type": "uint256"
        },
        {
          "indexed": false,
          "internalType": "uint256",
          "name": "oldControlVariable",
          "type": "uint256"
        },
        {
          "indexed": false,
          "internalType": "uint256",
          "name": "newControlVariable",
          "type": "uint256"
        }
      ],
      "name": "Tuned",
      "type": "event"
    },
    {
      "inputs": [
        {
          "internalType": "uint256",
          "name": "",
          "type": "uint256"
        }
      ],
      "name": "adjustments",
      "outputs": [
        {
          "internalType": "uint256",
          "name": "change",
          "type": "uint256"
        },
        {
          "internalType": "uint48",
          "name": "lastAdjustment",
          "type": "uint48"
        },
        {
          "internalType": "uint48",
          "name": "timeToAdjusted",
          "type": "uint48"
        },
        {
          "internalType": "bool",
          "name": "active",
          "type": "bool"
        }
      ],
      "stateMutability": "view",
      "type": "function"
    },
    {
      "inputs": [],
      "name": "authority",
      "outputs": [
        {
          "internalType": "contract IAuthority",
          "name": "",
          "type": "address"
        }
      ],
      "stateMutability": "view",
      "type": "function"
    },
    {
      "inputs": [
        {
          "internalType": "uint256",
          "name": "_id",
          "type": "uint256"
        }
      ],
      "name": "close",
      "outputs": [],
      "stateMutability": "nonpayable",
      "type": "function"
    },
    {
      "inputs": [
        {
          "internalType": "contract IERC20",
          "name": "_quoteToken",
          "type": "address"
        },
        {
          "internalType": "uint256[3]",
          "name": "_market",
          "type": "uint256[3]"
        },
        {
          "internalType": "bool[2]",
          "name": "_booleans",
          "type": "bool[2]"
        },
        {
          "internalType": "uint256[2]",
          "name": "_terms",
          "type": "uint256[2]"
        },
        {
          "internalType": "uint32[2]",
          "name": "_intervals",
          "type": "uint32[2]"
        }
      ],
      "name": "create",
      "outputs": [
        {
          "internalType": "uint256",
          "name": "id_",
          "type": "uint256"
        }
      ],
      "stateMutability": "nonpayable",
      "type": "function"
    },
    {
      "inputs": [
        {
          "internalType": "uint256",
          "name": "_id",
          "type": "uint256"
        }
      ],
      "name": "currentControlVariable",
      "outputs": [
        {
          "internalType": "uint256",
          "name": "",
          "type": "uint256"
        }
      ],
      "stateMutability": "view",
      "type": "function"
    },
    {
      "inputs": [
        {
          "internalType": "uint256",
          "name": "_id",
          "type": "uint256"
        }
      ],
      "name": "currentDebt",
      "outputs": [
        {
          "internalType": "uint256",
          "name": "",
          "type": "uint256"
        }
      ],
      "stateMutability": "view",
      "type": "function"
    },
    {
      "inputs": [],
      "name": "daoReward",
      "outputs": [
        {
          "internalType": "uint256",
          "name": "",
          "type": "uint256"
        }
      ],
      "stateMutability": "view",
      "type": "function"
    },
    {
      "inputs": [
        {
          "internalType": "uint256",
          "name": "_id",
          "type": "uint256"
        }
      ],
      "name": "debtDecay",
      "outputs": [
        {
          "internalType": "uint64",
          "name": "",
          "type": "uint64"
        }
      ],
      "stateMutability": "view",
      "type": "function"
    },
    {
      "inputs": [
        {
          "internalType": "uint256",
          "name": "_id",
          "type": "uint256"
        }
      ],
      "name": "debtRatio",
      "outputs": [
        {
          "internalType": "uint256",
          "name": "",
          "type": "uint256"
        }
      ],
      "stateMutability": "view",
      "type": "function"
    },
    {
      "inputs": [
        {
          "internalType": "uint256",
          "name": "_id",
          "type": "uint256"
        },
        {
          "internalType": "uint256",
          "name": "_amount",
          "type": "uint256"
        },
        {
          "internalType": "uint256",
          "name": "_maxPrice",
          "type": "uint256"
        },
        {
          "internalType": "address",
          "name": "_user",
          "type": "address"
        },
        {
          "internalType": "address",
          "name": "_referral",
          "type": "address"
        }
      ],
      "name": "deposit",
      "outputs": [
        {
          "internalType": "uint256",
          "name": "payout_",
          "type": "uint256"
        },
        {
          "internalType": "uint256",
          "name": "expiry_",
          "type": "uint256"
        },
        {
          "internalType": "uint256",
          "name": "index_",
          "type": "uint256"
        }
      ],
      "stateMutability": "nonpayable",
      "type": "function"
    },
    {
      "inputs": [],
      "name": "getReward",
      "outputs": [],
      "stateMutability": "nonpayable",
      "type": "function"
    },
    {
      "inputs": [
        {
          "internalType": "address",
          "name": "_user",
          "type": "address"
        }
      ],
      "name": "indexesFor",
      "outputs": [
        {
          "internalType": "uint256[]",
          "name": "",
          "type": "uint256[]"
        }
      ],
      "stateMutability": "view",
      "type": "function"
    },
    {
      "inputs": [
        {
          "internalType": "uint256",
          "name": "_id",
          "type": "uint256"
        }
      ],
      "name": "isLive",
      "outputs": [
        {
          "internalType": "bool",
          "name": "",
          "type": "bool"
        }
      ],
      "stateMutability": "view",
      "type": "function"
    },
    {
      "inputs": [],
      "name": "liveMarkets",
      "outputs": [
        {
          "internalType": "uint256[]",
          "name": "",
          "type": "uint256[]"
        }
      ],
      "stateMutability": "view",
      "type": "function"
    },
    {
      "inputs": [
        {
          "internalType": "address",
          "name": "_token",
          "type": "address"
        }
      ],
      "name": "liveMarketsFor",
      "outputs": [
        {
          "internalType": "uint256[]",
          "name": "",
          "type": "uint256[]"
        }
      ],
      "stateMutability": "view",
      "type": "function"
    },
    {
      "inputs": [
        {
          "internalType": "uint256",
          "name": "_id",
          "type": "uint256"
        }
      ],
      "name": "marketPrice",
      "outputs": [
        {
          "internalType": "uint256",
          "name": "",
          "type": "uint256"
        }
      ],
      "stateMutability": "view",
      "type": "function"
    },
    {
      "inputs": [
        {
          "internalType": "uint256",
          "name": "",
          "type": "uint256"
        }
      ],
      "name": "markets",
      "outputs": [
        {
          "internalType": "uint256",
          "name": "capacity",
          "type": "uint256"
        },
        {
          "internalType": "contract IERC20",
          "name": "quoteToken",
          "type": "address"
        },
        {
          "internalType": "bool",
          "name": "capacityInQuote",
          "type": "bool"
        },
        {
          "internalType": "uint256",
          "name": "totalDebt",
          "type": "uint256"
        },
        {
          "internalType": "uint256",
          "name": "maxPayout",
          "type": "uint256"
        },
        {
          "internalType": "uint256",
          "name": "sold",
          "type": "uint256"
        },
        {
          "internalType": "uint256",
          "name": "purchased",
          "type": "uint256"
        }
      ],
      "stateMutability": "view",
      "type": "function"
    },
    {
      "inputs": [
        {
          "internalType": "address",
          "name": "",
          "type": "address"
        },
        {
          "internalType": "uint256",
          "name": "",
          "type": "uint256"
        }
      ],
      "name": "marketsForQuote",
      "outputs": [
        {
          "internalType": "uint256",
          "name": "",
          "type": "uint256"
        }
      ],
      "stateMutability": "view",
      "type": "function"
    },
    {
      "inputs": [
        {
          "internalType": "uint256",
          "name": "",
          "type": "uint256"
        }
      ],
      "name": "metadata",
      "outputs": [
        {
          "internalType": "uint48",
          "name": "lastTune",
          "type": "uint48"
        },
        {
          "internalType": "uint48",
          "name": "lastDecay",
          "type": "uint48"
        },
        {
          "internalType": "uint48",
          "name": "length",
          "type": "uint48"
        },
        {
          "internalType": "uint48",
          "name": "depositInterval",
          "type": "uint48"
        },
        {
          "internalType": "uint48",
          "name": "tuneInterval",
          "type": "uint48"
        },
        {
          "internalType": "uint8",
          "name": "quoteDecimals",
          "type": "uint8"
        }
      ],
      "stateMutability": "view",
      "type": "function"
    },
    {
      "inputs": [
        {
          "internalType": "address",
          "name": "",
          "type": "address"
        },
        {
          "internalType": "uint256",
          "name": "",
          "type": "uint256"
        }
      ],
      "name": "notes",
      "outputs": [
        {
          "internalType": "uint256",
          "name": "payout",
          "type": "uint256"
        },
        {
          "internalType": "uint48",
          "name": "created",
          "type": "uint48"
        },
        {
          "internalType": "uint48",
          "name": "matured",
          "type": "uint48"
        },
        {
          "internalType": "uint48",
          "name": "redeemed",
          "type": "uint48"
        },
        {
          "internalType": "uint48",
          "name": "marketID",
          "type": "uint48"
        }
      ],
      "stateMutability": "view",
      "type": "function"
    },
    {
      "inputs": [
        {
          "internalType": "uint256",
          "name": "_amount",
          "type": "uint256"
        },
        {
          "internalType": "uint256",
          "name": "_id",
          "type": "uint256"
        }
      ],
      "name": "payoutFor",
      "outputs": [
        {
          "internalType": "uint256",
          "name": "",
          "type": "uint256"
        }
      ],
      "stateMutability": "view",
      "type": "function"
    },
    {
      "inputs": [
        {
          "internalType": "address",
          "name": "_user",
          "type": "address"
        },
        {
          "internalType": "uint256",
          "name": "_index",
          "type": "uint256"
        }
      ],
      "name": "pendingFor",
      "outputs": [
        {
          "internalType": "uint256",
          "name": "payout_",
          "type": "uint256"
        },
        {
          "internalType": "bool",
          "name": "matured_",
          "type": "bool"
        }
      ],
      "stateMutability": "view",
      "type": "function"
    },
    {
      "inputs": [
        {
          "internalType": "address",
          "name": "_from",
          "type": "address"
        },
        {
          "internalType": "uint256",
          "name": "_index",
          "type": "uint256"
        }
      ],
      "name": "pullNote",
      "outputs": [
        {
          "internalType": "uint256",
          "name": "newIndex_",
          "type": "uint256"
        }
      ],
      "stateMutability": "nonpayable",
      "type": "function"
    },
    {
      "inputs": [
        {
          "internalType": "address",
          "name": "_to",
          "type": "address"
        },
        {
          "internalType": "uint256",
          "name": "_index",
          "type": "uint256"
        }
      ],
      "name": "pushNote",
      "outputs": [],
      "stateMutability": "nonpayable",
      "type": "function"
    },
    {
      "inputs": [
        {
          "internalType": "address",
          "name": "_user",
          "type": "address"
        },
        {
          "internalType": "uint256[]",
          "name": "_indexes",
          "type": "uint256[]"
        },
        {
          "internalType": "bool",
          "name": "_sendgREQ",
          "type": "bool"
        }
      ],
      "name": "redeem",
      "outputs": [
        {
          "internalType": "uint256",
          "name": "payout_",
          "type": "uint256"
        }
      ],
      "stateMutability": "nonpayable",
      "type": "function"
    },
    {
      "inputs": [
        {
          "internalType": "address",
          "name": "_user",
          "type": "address"
        },
        {
          "internalType": "bool",
          "name": "_sendgREQ",
          "type": "bool"
        }
      ],
      "name": "redeemAll",
      "outputs": [
        {
          "internalType": "uint256",
          "name": "",
          "type": "uint256"
        }
      ],
      "stateMutability": "nonpayable",
      "type": "function"
    },
    {
      "inputs": [],
      "name": "refReward",
      "outputs": [
        {
          "internalType": "uint256",
          "name": "",
          "type": "uint256"
        }
      ],
      "stateMutability": "view",
      "type": "function"
    },
    {
      "inputs": [
        {
          "internalType": "address",
          "name": "",
          "type": "address"
        }
      ],
      "name": "rewards",
      "outputs": [
        {
          "internalType": "uint256",
          "name": "",
          "type": "uint256"
        }
      ],
      "stateMutability": "view",
      "type": "function"
    },
    {
      "inputs": [
        {
          "internalType": "contract IAuthority",
          "name": "_newAuthority",
          "type": "address"
        }
      ],
      "name": "setAuthority",
      "outputs": [],
      "stateMutability": "nonpayable",
      "type": "function"
    },
    {
      "inputs": [
        {
          "internalType": "uint256",
          "name": "_toFrontEnd",
          "type": "uint256"
        },
        {
          "internalType": "uint256",
          "name": "_toDAO",
          "type": "uint256"
        }
      ],
      "name": "setRewards",
      "outputs": [],
      "stateMutability": "nonpayable",
      "type": "function"
    },
    {
      "inputs": [
        {
          "internalType": "uint256",
          "name": "",
          "type": "uint256"
        }
      ],
      "name": "terms",
      "outputs": [
        {
          "internalType": "bool",
          "name": "fixedTerm",
          "type": "bool"
        },
        {
          "internalType": "uint256",
          "name": "controlVariable",
          "type": "uint256"
        },
        {
          "internalType": "uint48",
          "name": "vesting",
          "type": "uint48"
        },
        {
          "internalType": "uint48",
          "name": "conclusion",
          "type": "uint48"
        },
        {
          "internalType": "uint256",
          "name": "maxDebt",
          "type": "uint256"
        }
      ],
      "stateMutability": "view",
      "type": "function"
    },
    {
      "inputs": [],
      "name": "updateTreasury",
      "outputs": [],
      "stateMutability": "nonpayable",
      "type": "function"
    },
    {
      "inputs": [
        {
          "internalType": "address",
          "name": "_operator",
          "type": "address"
        }
      ],
      "name": "whitelist",
      "outputs": [],
      "stateMutability": "nonpayable",
      "type": "function"
    },
    {
      "inputs": [
        {
          "internalType": "address",
          "name": "",
          "type": "address"
        }
      ],
      "name": "whitelisted",
      "outputs": [
        {
          "internalType": "bool",
          "name": "",
          "type": "bool"
        }
      ],
      "stateMutability": "view",
      "type": "function"
    }
  ],
  "transactionHash": "0xbc68f70b6a88bdeb2aa85fe07a706d3122fbd373720157c375fdd3d5e0e34883",
  "args": [
    "0x09635F643e140090A9A8Dcd712eD6285858ceBef",
    "0x0B306BF915C4d645ff596e518fAf3F9669b97016",
    "0x4A679253410272dd5232B3Ff7cF5dbB88f295319",
    "0xc5a5C42992dECbae36851359345FE25997F5C42d",
    "0x1613beB3B2C4f22Ee086B2b38C1476A3cE7f78E8"
  ],
  "solcInputHash": "7d4eb1ab9c46b7c96ccdef196838d184",
  "bytecode": "0x610120604052600c60e08190526b15539055551213d49256915160a21b6101009081526200003191600091906200017e565b503480156200003f57600080fd5b50604051620043f2380380620043f283398101604081905262000062916200023d565b600180546001600160a01b0319166001600160a01b038716908117909155604051869186918691869186918691869183917f2f658b440c35314f52658ea8a740e05b284cdc84dc9ae01e891f21b8933e7cad90600090a2506001600160a01b0390811660805293841660a0525090821660c052600880546001600160a01b03191691831691909117905560405163095ea7b360e01b815285821660048201527502ac3a4edbbfb8014e3ba83411e915e80000000000006024820152908716925063095ea7b391506044016020604051808303816000875af11580156200014c573d6000803e3d6000fd5b505050506040513d601f19601f82011682018060405250810190620001729190620002bd565b50505050505062000325565b8280546200018c90620002e8565b90600052602060002090601f016020900481019282620001b05760008555620001fb565b82601f10620001cb57805160ff1916838001178555620001fb565b82800160010185558215620001fb579182015b82811115620001fb578251825591602001919060010190620001de565b50620002099291506200020d565b5090565b5b808211156200020957600081556001016200020e565b6001600160a01b03811681146200023a57600080fd5b50565b600080600080600060a086880312156200025657600080fd5b8551620002638162000224565b6020870151909550620002768162000224565b6040870151909450620002898162000224565b60608701519093506200029c8162000224565b6080870151909250620002af8162000224565b809150509295509295909350565b600060208284031215620002d057600080fd5b81518015158114620002e157600080fd5b9392505050565b600181811c90821680620002fd57607f821691505b602082108114156200031f57634e487b7160e01b600052602260045260246000fd5b50919050565b60805160a05160c05161406c62000386600039600081816124410152612e310152600081816123a80152612c5901526000818161094201528181610e730152818161100301528181611373015281816116b901526130c7015261406c6000f3fe608060405234801561001057600080fd5b50600436106102065760003560e01c8063abbf4b171161011a578063c9b67af5116100ad578063e0b117ff1161007c578063e0b117ff14610594578063e3684e39146105dc578063e481b26514610633578063f1b7dc7814610646578063f3191a461461065957600080fd5b8063c9b67af514610543578063d62fbdd31461054b578063d6db4df81461055e578063d936547e1461057157600080fd5b8063bf7e214f116100e9578063bf7e214f14610495578063c0680e20146104c0578063c0aa0e8a146104d3578063c3e0fb1c1461051b57600080fd5b8063abbf4b1714610388578063b1283e77146103b4578063bc3b2b121461040a578063bcb296671461048257600080fd5b806346aed74e1161019d5780637a9e5e4b1161016c5780637a9e5e4b146103195780637c770aae1461032c5780639b19251a1461035a5780639c7697871461036d578063a42206101461037557600080fd5b806346aed74e146102c057806364914439146102d3578063654e51e7146102f35780636a6c575d1461030657600080fd5b806321a7d29b116101d957806321a7d29b1461026f57806327507458146102825780633adec5a7146102a55780633d18b912146102b857600080fd5b80630700037d1461020b5780630a9d85eb1461023e5780630aebeb4e146102515780631885f58014610266575b600080fd5b61022b610219366004613848565b60046020526000908152604090205481565b6040519081526020015b60405180910390f35b61022b61024c366004613865565b610662565b61026461025f366004613865565b6106a9565b005b61022b60025481565b61022b61027d366004613a08565b6107f8565b610295610290366004613865565b610efb565b6040519015158152602001610235565b61022b6102b3366004613865565b610f6c565b610264610fc8565b61022b6102ce366004613ac9565b611074565b6102e66102e1366004613848565b611089565b6040516102359190613b02565b610264610301366004613b46565b611218565b61022b610314366004613b46565b6112cf565b610264610327366004613848565b61142f565b61033f61033a366004613b68565b611525565b60408051938452602084019290925290820152606001610235565b610264610368366004613848565b611936565b610264611a0b565b61022b610383366004613bbe565b611c91565b61039b610396366004613865565b611ef5565b60405167ffffffffffffffff9091168152602001610235565b6103c76103c2366004613865565b611fc7565b604080519788526001600160a01b039096166020880152931515948601949094526060850191909152608084015260a083019190915260c082015260e001610235565b610451610418366004613865565b600c602052600090815260409020805460019091015465ffffffffffff80821691600160301b810490911690600160601b900460ff1684565b604051610235949392919093845265ffffffffffff9283166020850152911660408301521515606082015260800190565b61022b610490366004613865565b612024565b6001546104a8906001600160a01b031681565b6040516001600160a01b039091168152602001610235565b61022b6104ce366004613bbe565b612068565b6104e66104e1366004613865565b612099565b604080519515158652602086019490945265ffffffffffff92831693850193909352166060830152608082015260a001610235565b61052e610529366004613bbe565b6120eb565b60408051928352901515602083015201610235565b6102e66121b6565b61022b610559366004613bea565b61229f565b61026461056c366004613bbe565b6124b8565b61029561057f366004613848565b60056020526000908152604090205460ff1681565b6105a76105a2366004613bbe565b61257a565b6040805195865265ffffffffffff9485166020870152928416928501929092528216606084015216608082015260a001610235565b6105ef6105ea366004613865565b6125dd565b6040805165ffffffffffff97881681529587166020870152938616938501939093529084166060840152909216608082015260ff90911660a082015260c001610235565b6102e6610641366004613848565b61263b565b61022b610654366004613865565b612860565b61022b60035481565b60008061066e8361290b565b5050905080600a848154811061068657610686613cb5565b9060005260206000209060040201600101546106a29190613ce1565b9392505050565b600160009054906101000a90046001600160a01b03166001600160a01b0316630505c8c96040518163ffffffff1660e01b8152600401602060405180830381865afa1580156106fc573d6000803e3d6000fd5b505050506040513d601f19601f820116820180604052508101906107209190613cf8565b6001600160a01b0316336001600160a01b03161460009061075d5760405162461bcd60e51b81526004016107549190613d15565b60405180910390fd5b5042600a828154811061077257610772613cb5565b906000526020600020906004020160020160066101000a81548165ffffffffffff021916908365ffffffffffff1602179055506000600982815481106107ba576107ba613cb5565b6000918252602082206006909102019190915560405182917f8401d05adbea6548a6999cc1540766e6d2ff919292142862893d0e62ec79fbe591a250565b60015460408051630505c8c960e01b815290516000926001600160a01b031691630505c8c99160048083019260209291908290030181865afa158015610842573d6000803e3d6000fd5b505050506040513d601f19601f820116820180604052508101906108669190613cf8565b6001600160a01b0316336001600160a01b03161460009061089a5760405162461bcd60e51b81526004016107549190613d15565b5060208301516000906108ae904290613ce1565b90506000876001600160a01b031663313ce5676040518163ffffffff1660e01b8152600401602060405180830381865afa1580156108f0573d6000803e3d6000fd5b505050506040513d601f19601f820116820180604052508101906109149190613dbd565b60ff16905060008681602002015161092d5787516109f8565b61093882600a613ec4565b88600160200201517f00000000000000000000000000000000000000000000000000000000000000006001600160a01b031663313ce5676040518163ffffffff1660e01b8152600401602060405180830381865afa15801561099e573d6000803e3d6000fd5b505050506040513d601f19601f820116820180604052508101906109c29190613dbd565b6109cd906002613ed0565b6109d890600a613ef1565b8a516109e49190613f00565b6109ee9190613f1f565b6109f89190613f1f565b85519091506000908490610a129063ffffffff1684613f00565b610a1c9190613f1f565b90506000620186a08a60026020020151610a369085613f00565b610a409190613f1f565b610a4a9084613f41565b9050600083600860009054906101000a90046001600160a01b03166001600160a01b031663860f50486040518163ffffffff1660e01b8152600401602060405180830381865afa158015610aa2573d6000803e3d6000fd5b505050506040513d601f19601f82011682018060405250810190610ac69190613f59565b60208d0151610ad59190613f00565b610adf9190613f1f565b600980546040805160e0810190915290995091925090808d6000602002015181526020018e6001600160a01b031681526020018c600060028110610b2557610b25613cb5565b60209081029190910151151582528181018890526040808301889052600060608085018290526080948501829052865460018082018955978352918490208651600690930201918255858401518288018054888601511515600160a01b026001600160a81b03199091166001600160a01b039093169290921791909117905585810151600283015593850151600382015560a080860151600483015560c090950151600590910155805193840181528e8201511515845267ffffffffffffffff8616918401919091528c5165ffffffffffff1690830152600a92908201908c906020908102919091015165ffffffffffff908116835267ffffffffffffffff87169282019290925283546001818101865560009586528286208551600490930201805492151560ff1990931692909217825584830151908201556040808501516002830180546060808901518816600160301b026001600160601b031990921693881693909317179055608090950151600390920191909155805160c08101825242841680825292810192909252918a1691810191909152600b9290918201908b906020908102919091015163ffffffff168252018a6001602002015163ffffffff1665ffffffffffff1681526020018760ff168152509080600181540180825580915050600190039060005260206000200160009091909190915060008201518160000160006101000a81548165ffffffffffff021916908365ffffffffffff16021790555060208201518160000160066101000a81548165ffffffffffff021916908365ffffffffffff160217905550604082015181600001600c6101000a81548165ffffffffffff021916908365ffffffffffff16021790555060608201518160000160126101000a81548165ffffffffffff021916908365ffffffffffff16021790555060808201518160000160186101000a81548165ffffffffffff021916908365ffffffffffff16021790555060a082015181600001601e6101000a81548160ff021916908360ff1602179055505050600d60008d6001600160a01b03166001600160a01b031681526020019081526020016000208790806001815401808255809150506001900390600052602060002001600090919091909150558b6001600160a01b03167f00000000000000000000000000000000000000000000000000000000000000006001600160a01b0316887f2f6ff727bd580b1d1b8332e28aa93ed4ec9d8b08d6e30d6b4c9f7aa63ca17f638e600160038110610ed057610ed0613cb5565b6020020151604051610ee491815260200190565b60405180910390a450505050505095945050505050565b600060098281548110610f1057610f10613cb5565b906000526020600020906006020160000154600014158015610f66575042600a8381548110610f4157610f41613cb5565b6000918252602090912060049091020160020154600160301b900465ffffffffffff16115b92915050565b6000600b8281548110610f8157610f81613cb5565b600091825260209091200154610fa290600160f01b900460ff16600a613ef1565b610fab83612860565b610fb484610662565b610fbe9190613f00565b610f669190613f1f565b33600081815260046020819052604080832080549390555163a9059cbb60e01b81529081019290925260248201819052906001600160a01b037f0000000000000000000000000000000000000000000000000000000000000000169063a9059cbb906044016020604051808303816000875af115801561104c573d6000803e3d6000fd5b505050506040513d601f19601f820116820180604052508101906110709190613f72565b5050565b60006106a2836110838561263b565b8461229f565b6001600160a01b0381166000908152600d602090815260408083208054825181850281018501909352808352606094938301828280156110e857602002820191906000526020600020905b8154815260200190600101908083116110d4575b50505050509050600080600090505b82518110156111475761112283828151811061111557611115613cb5565b6020026020010151610efb565b15611135578161113181613f8f565b9250505b8061113f81613f8f565b9150506110f7565b5060008167ffffffffffffffff8111156111635761116361387e565b60405190808252806020026020018201604052801561118c578160200160208202803683370190505b5090506000805b845181101561120d576111b185828151811061111557611115613cb5565b156111fb578481815181106111c8576111c8613cb5565b60200260200101518383815181106111e2576111e2613cb5565b6020908102919091010152816111f781613f8f565b9250505b8061120581613f8f565b915050611193565b509095945050505050565b600160009054906101000a90046001600160a01b03166001600160a01b0316630c340a246040518163ffffffff1660e01b8152600401602060405180830381865afa15801561126b573d6000803e3d6000fd5b505050506040513d601f19601f8201168201806040525081019061128f9190613cf8565b6001600160a01b0316336001600160a01b0316146000906112c35760405162461bcd60e51b81526004016107549190613d15565b50600391909155600255565b600080600b83815481106112e5576112e5613cb5565b60009182526020918290206040805160c081018252919092015465ffffffffffff8082168352600160301b8204811694830194909452600160601b8104841692820192909252600160901b820483166060820152600160c01b8204909216608083015260ff600160f01b9091041660a0820181905290915061136890600a613ef1565b61137184610f6c565b7f00000000000000000000000000000000000000000000000000000000000000006001600160a01b031663313ce5676040518163ffffffff1660e01b8152600401602060405180830381865afa1580156113cf573d6000803e3d6000fd5b505050506040513d601f19601f820116820180604052508101906113f39190613dbd565b6113fe906002613ed0565b61140990600a613ef1565b6114139087613f00565b61141d9190613f1f565b6114279190613f1f565b949350505050565b600160009054906101000a90046001600160a01b03166001600160a01b0316630c340a246040518163ffffffff1660e01b8152600401602060405180830381865afa158015611482573d6000803e3d6000fd5b505050506040513d601f19601f820116820180604052508101906114a69190613cf8565b6001600160a01b0316336001600160a01b0316146000906114da5760405162461bcd60e51b81526004016107549190613d15565b50600180546001600160a01b0319166001600160a01b0383169081179091556040517f2f658b440c35314f52658ea8a740e05b284cdc84dc9ae01e891f21b8933e7cad90600090a250565b6000806000806009898154811061153e5761153e613cb5565b906000526020600020906006020190506000600a8a8154811061156357611563613cb5565b60009182526020918290206040805160a0810182526004909302909101805460ff1615158352600181015493830193909352600283015465ffffffffffff80821692840192909252600160301b9004811660608301819052600390930154608083015290925042919082161061161b5760405162461bcd60e51b815260206004820152601c60248201527f4465706f7369746f72793a206d61726b657420636f6e636c75646564000000006044820152606401610754565b6116258b826129ed565b60006116308c612baa565b9050898111156116825760405162461bcd60e51b815260206004820152601f60248201527f4465706f7369746f72793a206d6f7265207468616e206d6178207072696365006044820152606401610754565b600b8c8154811061169557611695613cb5565b6000918252602090912001546116b690600160f01b900460ff16600a613ef1565b817f00000000000000000000000000000000000000000000000000000000000000006001600160a01b031663313ce5676040518163ffffffff1660e01b8152600401602060405180830381865afa158015611715573d6000803e3d6000fd5b505050506040513d601f19601f820116820180604052508101906117399190613dbd565b611744906002613ed0565b61174f90600a613ef1565b611759908e613f00565b6117639190613f1f565b61176d9190613f1f565b965083600301548711156117c35760405162461bcd60e51b815260206004820152601d60248201527f4465706f7369746f72793a206d61782073697a652065786365656465640000006044820152606401610754565b6001840154600160a01b900460ff166117dc57866117de565b8a5b8460000160008282546117f19190613ce1565b90915550508251611806578260400151611816565b8183604001516118169190613faa565b65ffffffffffff1695508a8460050160008282546118349190613f41565b925050819055508684600401600082825461184f9190613f41565b925050819055508684600201600082825461186a9190613f41565b9091555050604080518c8152602081018390528d917f7880508a48fd3aee88f7e15917d85e39c3ad059e51ad4aca9bb46e7b4938b961910160405180910390a26118b78988888f8c612c18565b60085460018601549196506118db916001600160a01b03908116913391168e612eb3565b83600201548360800151101561191d5760008085556040518d917f8401d05adbea6548a6999cc1540766e6d2ff919292142862893d0e62ec79fbe591a2611927565b6119278c83612f13565b50505050955095509592505050565b600160009054906101000a90046001600160a01b03166001600160a01b0316630505c8c96040518163ffffffff1660e01b8152600401602060405180830381865afa158015611989573d6000803e3d6000fd5b505050506040513d601f19601f820116820180604052508101906119ad9190613cf8565b6001600160a01b0316336001600160a01b0316146000906119e15760405162461bcd60e51b81526004016107549190613d15565b506001600160a01b03166000908152600560205260409020805460ff19811660ff90911615179055565b600160009054906101000a90046001600160a01b03166001600160a01b0316630c340a246040518163ffffffff1660e01b8152600401602060405180830381865afa158015611a5e573d6000803e3d6000fd5b505050506040513d601f19601f82011682018060405250810190611a829190613cf8565b6001600160a01b0316336001600160a01b03161480611b285750600160009054906101000a90046001600160a01b03166001600160a01b031663452a93206040518163ffffffff1660e01b8152600401602060405180830381865afa158015611aef573d6000803e3d6000fd5b505050506040513d601f19601f82011682018060405250810190611b139190613cf8565b6001600160a01b0316336001600160a01b0316145b80611bba5750600160009054906101000a90046001600160a01b03166001600160a01b0316630505c8c96040518163ffffffff1660e01b8152600401602060405180830381865afa158015611b81573d6000803e3d6000fd5b505050506040513d601f19601f82011682018060405250810190611ba59190613cf8565b6001600160a01b0316336001600160a01b0316145b611bf85760405162461bcd60e51b815260206004820152600f60248201526e13db9b1e48185d5d1a1bdc9a5e9959608a1b6044820152606401610754565b600160009054906101000a90046001600160a01b03166001600160a01b031663fbfa77cf6040518163ffffffff1660e01b8152600401602060405180830381865afa158015611c4b573d6000803e3d6000fd5b505050506040513d601f19601f82011682018060405250810190611c6f9190613cf8565b600880546001600160a01b0319166001600160a01b0392909216919091179055565b6001600160a01b0382811660009081526007602090815260408083208584529091528120549091163314611d075760405162461bcd60e51b815260206004820152601e60248201527f4465706f7369746f72793a207472616e73666572206e6f7420666f756e6400006044820152606401610754565b6001600160a01b0383166000908152600660205260409020805483908110611d3157611d31613cb5565b6000918252602090912060029091020160010154600160601b900465ffffffffffff1615611da15760405162461bcd60e51b815260206004820152601960248201527f4465706f7369746f72793a206e6f74652072656465656d6564000000000000006044820152606401610754565b503360009081526006602052604080822080546001600160a01b038616845291909220805491929184908110611dd957611dd9613cb5565b600091825260208083208454600181810187559585528285206002948502909201805491909402909101908155918401805492909401805465ffffffffffff19811665ffffffffffff94851690811783558654600160301b908190048616026001600160601b031990921617178082558554600160601b9081900485160265ffffffffffff60601b198216811783559554600160901b9081900490941690930265ffffffffffff60901b199095166bffffffffffffffffffffffff60601b19909316929092179390931790556001600160a01b0385168152600690915260409020805483908110611ecc57611ecc613cb5565b60009182526020822060029091020190815560010180546001600160c01b031916905592915050565b600080600b8381548110611f0b57611f0b613cb5565b600091825260208083206040805160c081018252939091015465ffffffffffff8082168552600160301b82048116938501849052600160601b8204811692850192909252600160901b810482166060850152600160c01b81049091166080840152600160f01b900460ff1660a0830152909250611f889042613ce1565b9050816040015165ffffffffffff168160098681548110611fab57611fab613cb5565b90600052602060002090600602016002015461141d9190613f00565b60098181548110611fd757600080fd5b60009182526020909120600690910201805460018201546002830154600384015460048501546005909501549395506001600160a01b03831694600160a01b90930460ff16939192909187565b600061202f82611ef5565b67ffffffffffffffff166009838154811061204c5761204c613cb5565b906000526020600020906006020160020154610f669190613ce1565b600d602052816000526040600020818154811061208457600080fd5b90600052602060002001600091509150505481565b600a81815481106120a957600080fd5b6000918252602090912060049091020180546001820154600283015460039093015460ff90921693509165ffffffffffff80821692600160301b909204169085565b6001600160a01b03821660009081526006602052604081208054829182918590811061211957612119613cb5565b60009182526020918290206040805160a0810182526002909302909101805480845260019091015465ffffffffffff80821695850195909552600160301b8104851692840192909252600160601b8204841660608401819052600160901b909204909316608083015291945091501580156121a0575042816040015165ffffffffffff1611155b80156121ac5750805115155b9150509250929050565b60606000805b6009548110156121f4576121cf81610efb565b156121e257816121de81613f8f565b9250505b806121ec81613f8f565b9150506121bc565b5060008167ffffffffffffffff8111156122105761221061387e565b604051908082528060200260200182016040528015612239578160200160208202803683370190505b5090506000805b6009548110156122965761225381610efb565b15612284578083838151811061226b5761226b613cb5565b60209081029190910101528161228081613f8f565b9250505b8061228e81613f8f565b915050612240565b50909392505050565b600042815b845181101561237b576000806122d3888885815181106122c6576122c6613cb5565b60200260200101516120eb565b915091508015612366576001600160a01b0388166000908152600660205260409020875185919089908690811061230c5761230c613cb5565b60200260200101518154811061232457612324613cb5565b9060005260206000209060020201600101600c6101000a81548165ffffffffffff021916908365ffffffffffff16021790555081856123639190613f41565b94505b5050808061237390613f8f565b9150506122a4565b50821561241b5760405163a9059cbb60e01b81526001600160a01b038681166004830152602482018490527f0000000000000000000000000000000000000000000000000000000000000000169063a9059cbb906044016020604051808303816000875af11580156123f1573d6000803e3d6000fd5b505050506040513d601f19601f820116820180604052508101906124159190613f72565b506124b0565b6040516339f4769360e01b81526001600160a01b038681166004830152602482018490527f000000000000000000000000000000000000000000000000000000000000000016906339f47693906044016020604051808303816000875af115801561248a573d6000803e3d6000fd5b505050506040513d601f19601f820116820180604052508101906124ae9190613f59565b505b509392505050565b3360009081526006602052604090208054829081106124d9576124d9613cb5565b600091825260209091206001600290920201015465ffffffffffff166125415760405162461bcd60e51b815260206004820152601a60248201527f4465706f7369746f72793a206e6f7465206e6f7420666f756e640000000000006044820152606401610754565b3360009081526007602090815260408083209383529290522080546001600160a01b0319166001600160a01b0392909216919091179055565b6006602052816000526040600020818154811061259657600080fd5b60009182526020909120600290910201805460019091015490925065ffffffffffff8082169250600160301b8204811691600160601b8104821691600160901b9091041685565b600b81815481106125ed57600080fd5b60009182526020909120015465ffffffffffff8082169250600160301b8204811691600160601b8104821691600160901b8204811691600160c01b810490911690600160f01b900460ff1686565b6001600160a01b0381166000908152600660209081526040808320805482518185028101850190935280835260609493849084015b828210156126e65760008481526020908190206040805160a081018252600286029092018054835260019081015465ffffffffffff80821685870152600160301b8204811693850193909352600160601b810483166060850152600160901b900490911660808301529083529092019101612670565b505050509050600080600090505b82518110156127755782818151811061270f5761270f613cb5565b60200260200101516060015165ffffffffffff166000148015612750575082818151811061273f5761273f613cb5565b602002602001015160000151600014155b15612763578161275f81613f8f565b9250505b8061276d81613f8f565b9150506126f4565b5060008167ffffffffffffffff8111156127915761279161387e565b6040519080825280602002602001820160405280156127ba578160200160208202803683370190505b5090506000805b845181101561120d578481815181106127dc576127dc613cb5565b60200260200101516060015165ffffffffffff16600014801561281d575084818151811061280c5761280c613cb5565b602002602001015160000151600014155b1561284e578083838151811061283557612835613cb5565b60209081029190910101528161284a81613f8f565b9250505b8061285881613f8f565b9150506127c1565b600854604080516310c1ea0960e31b815290516000926001600160a01b03169163860f50489160048083019260209291908290030181865afa1580156128aa573d6000803e3d6000fd5b505050506040513d601f19601f820116820180604052508101906128ce9190613f59565b600b83815481106128e1576128e1613cb5565b60009182526020909120015461290290600160f01b900460ff16600a613ef1565b610fb484612024565b6000818152600c6020908152604080832081516080810183528154815260019091015465ffffffffffff80821694830194909452600160301b810490931691810191909152600160601b90910460ff161515606082018190528291829161297d576000806000935093509350506129e6565b602081015161298c9042613fd4565b9250806040015165ffffffffffff168365ffffffffffff16109150816129b35780516129e2565b806040015165ffffffffffff168365ffffffffffff1682600001516129d89190613f00565b6129e29190613f1f565b9350505b9193909250565b6129f682611ef5565b67ffffffffffffffff1660098381548110612a1357612a13613cb5565b90600052602060002090600602016002016000828254612a339190613ce1565b9250508190555080600b8381548110612a4e57612a4e613cb5565b60009182526020808320909101805465ffffffffffff94909416600160301b026bffffffffffff0000000000001990941693909317909255838152600c909152604090206001015460ff600160601b9091041615611070576000828152600c60205260408120908080612ac08661290b565b92509250925082600a8781548110612ada57612ada613cb5565b90600052602060002090600402016001016000828254612afa9190613ce1565b90915550508015612b925782846000016000828254612b199190613ce1565b9091555050600184018054839190600690612b44908490600160301b900465ffffffffffff16613fd4565b92506101000a81548165ffffffffffff021916908365ffffffffffff160217905550848460010160006101000a81548165ffffffffffff021916908365ffffffffffff160217905550612ba2565b60018401805460ff60601b191690555b505050505050565b6000600b8281548110612bbf57612bbf613cb5565b600091825260209091200154612be090600160f01b900460ff16600a613ef1565b612be98361348c565b600a8481548110612bfc57612bfc613cb5565b906000526020600020906004020160010154610fbe9190613f00565b6001600160a01b03858116600090815260066020526040908190208054825160a08101938490526319a948db60e21b90935260a483018890529290919081907f0000000000000000000000000000000000000000000000000000000000000000166366a5236c60c48301602060405180830381865afa158015612c9f573d6000803e3d6000fd5b505050506040513d601f19601f82011682018060405250810190612cc39190613f59565b815265ffffffffffff428116602080840191909152888216604080850191909152600060608086018290528a8516608096870152875460018181018a55988352848320885160029092020190815593870151939097018054928701519787015196909501518416600160901b0265ffffffffffff60901b19968516600160601b02969096166bffffffffffffffffffffffff60601b19978516600160301b026001600160601b03199093169390941692909217179490941617919091179055612d8c868461355d565b6008549091506001600160a01b03166340c10f1930612dab848a613f41565b6040516001600160e01b031960e085901b1681526001600160a01b0390921660048301526024820152604401600060405180830381600087803b158015612df157600080fd5b505af1158015612e05573d6000803e3d6000fd5b5050604051631b0cd93b60e31b81523060048201526024810189905260006044820152600160648201527f00000000000000000000000000000000000000000000000000000000000000006001600160a01b0316925063d866c9d891506084016020604051808303816000875af1158015612e84573d6000803e3d6000fd5b505050506040513d601f19601f82011682018060405250810190612ea89190613f59565b505095945050505050565b604080516001600160a01b0385811660248301528416604482015260648082018490528251808303909101815260849091019091526020810180516001600160e01b03166323b872dd60e01b179052612f0d908590613759565b50505050565b6000600b8381548110612f2857612f28613cb5565b60009182526020918290206040805160c081018252929091015465ffffffffffff808216808552600160301b8304821695850195909552600160601b8204811692840192909252600160901b810482166060840152600160c01b810490911660808301819052600160f01b90910460ff1660a0830152909250612faa91613faa565b65ffffffffffff168265ffffffffffff161061348757600060098481548110612fd557612fd5613cb5565b600091825260208083206040805160e0810182526006949094029091018054845260018101546001600160a01b03811693850193909352600160a01b90920460ff161515908301526002810154606083015260038101546080830152600481015460a08301526005015460c0820152600a805491935085918790811061305d5761305d613cb5565b906000526020600020906004020160020160069054906101000a900465ffffffffffff1661308b9190613fd4565b65ffffffffffff16905060006130a086612baa565b9050600083604001516130b457835161317d565b60a08501516130c490600a613ef1565b827f00000000000000000000000000000000000000000000000000000000000000006001600160a01b031663313ce5676040518163ffffffff1660e01b8152600401602060405180830381865afa158015613123573d6000803e3d6000fd5b505050506040513d601f19601f820116820180604052508101906131479190613dbd565b613152906002613ed0565b61315d90600a613ef1565b86516131699190613f00565b6131739190613f1f565b61317d9190613f1f565b905082856060015165ffffffffffff16826131989190613f00565b6131a29190613f1f565b600988815481106131b5576131b5613cb5565b906000526020600020906006020160030181905550600083866040015165ffffffffffff16836131e59190613f00565b6131ef9190613f1f565b9050600081600860009054906101000a90046001600160a01b03166001600160a01b031663860f50486040518163ffffffff1660e01b8152600401602060405180830381865afa158015613247573d6000803e3d6000fd5b505050506040513d601f19601f8201168201806040525081019061326b9190613f59565b6132759086613f00565b61327f9190613f1f565b9050887f78f9c01d72705dba80d6ce051d36a1f987bf2a3800fee938c111a2ae741e57d1600a8b815481106132b6576132b6613cb5565b906000526020600020906004020160010154836040516132e0929190918252602082015260400190565b60405180910390a2600a89815481106132fb576132fb613cb5565b90600052602060002090600402016001015481106133415780600a8a8154811061332757613327613cb5565b906000526020600020906004020160010181905550613445565b600081600a8b8154811061335757613357613cb5565b9060005260206000209060040201600101546133739190613ce1565b905060405180608001604052808281526020018a65ffffffffffff168152602001896080015165ffffffffffff16815260200160011515815250600c60008c81526020019081526020016000206000820151816000015560208201518160010160006101000a81548165ffffffffffff021916908365ffffffffffff16021790555060408201518160010160066101000a81548165ffffffffffff021916908365ffffffffffff160217905550606082015181600101600c6101000a81548160ff021916908315150217905550905050505b87600b8a8154811061345957613459613cb5565b6000918252602090912001805465ffffffffffff191665ffffffffffff929092169190911790555050505050505b505050565b600854604080516310c1ea0960e31b815290516000926001600160a01b03169163860f50489160048083019260209291908290030181865afa1580156134d6573d6000803e3d6000fd5b505050506040513d601f19601f820116820180604052508101906134fa9190613f59565b600b838154811061350d5761350d613cb5565b60009182526020909120015461352e90600160f01b900460ff16600a613ef1565b6009848154811061354157613541613cb5565b906000526020600020906006020160020154610fbe9190613f00565b600080612710600254856135719190613f00565b61357b9190613f1f565b90506000612710600354866135909190613f00565b61359a9190613f1f565b6001600160a01b03851660009081526005602052604090205490915060ff1615613697576001600160a01b038416600090815260046020526040812080548392906135e6908490613f41565b909155505060015460408051630229549960e51b8152905184926004926000926001600160a01b039092169163452a93209180860191602091819003870181865afa158015613639573d6000803e3d6000fd5b505050506040513d601f19601f8201168201806040525081019061365d9190613cf8565b6001600160a01b03166001600160a01b03168152602001908152602001600020600082825461368c9190613f41565b909155506137469050565b6136a18183613f41565b60015460408051630229549960e51b815290516004926000926001600160a01b039091169163452a93209180860191602091819003870181865afa1580156136ed573d6000803e3d6000fd5b505050506040513d601f19601f820116820180604052508101906137119190613cf8565b6001600160a01b03166001600160a01b0316815260200190815260200160002060008282546137409190613f41565b90915550505b6137508183613f41565b95945050505050565b600080836001600160a01b0316836040516137749190613ffb565b6000604051808303816000865af19150503d80600081146137b1576040519150601f19603f3d011682016040523d82523d6000602084013e6137b6565b606091505b509150915060008214156137ce573d6000803e3d6000fd5b805115806137eb5750808060200190518101906137eb9190613f72565b612f0d5760405162461bcd60e51b815260206004820152601660248201527514d0519157d15490cc8c17d0d0531317d1905253115160521b6044820152606401610754565b6001600160a01b038116811461384557600080fd5b50565b60006020828403121561385a57600080fd5b81356106a281613830565b60006020828403121561387757600080fd5b5035919050565b634e487b7160e01b600052604160045260246000fd5b6040805190810167ffffffffffffffff811182821017156138b7576138b761387e565b60405290565b604051601f8201601f1916810167ffffffffffffffff811182821017156138e6576138e661387e565b604052919050565b60006040516060810181811067ffffffffffffffff821117156139135761391361387e565b604052905080606083018481111561392a57600080fd5b835b8181101561394457803583526020928301920161392c565b50505092915050565b801515811461384557600080fd5b80356139668161394d565b919050565b600082601f83011261397c57600080fd5b613984613894565b80604084018581111561399657600080fd5b845b8181101561120d578035845260209384019301613998565b600082601f8301126139c157600080fd5b6139c9613894565b8060408401858111156139db57600080fd5b845b8181101561120d57803563ffffffff811681146139fa5760008081fd5b8452602093840193016139dd565b60008060008060006101408688031215613a2157600080fd5b8535613a2c81613830565b94506020603f87018813613a3f57600080fd5b613a4b888289016138ee565b945087609f880112613a5c57600080fd5b613a64613894565b8060c089018a811115613a7657600080fd5b60808a015b81811015613a9b578035613a8e8161394d565b8452928401928401613a7b565b50819650613aa98b8261396b565b955050505050613abd8761010088016139b0565b90509295509295909350565b60008060408385031215613adc57600080fd5b8235613ae781613830565b91506020830135613af78161394d565b809150509250929050565b6020808252825182820181905260009190848201906040850190845b81811015613b3a57835183529284019291840191600101613b1e565b50909695505050505050565b60008060408385031215613b5957600080fd5b50508035926020909101359150565b600080600080600060a08688031215613b8057600080fd5b8535945060208601359350604086013592506060860135613ba081613830565b91506080860135613bb081613830565b809150509295509295909350565b60008060408385031215613bd157600080fd5b8235613bdc81613830565b946020939093013593505050565b600080600060608486031215613bff57600080fd5b8335613c0a81613830565b925060208481013567ffffffffffffffff80821115613c2857600080fd5b818701915087601f830112613c3c57600080fd5b813581811115613c4e57613c4e61387e565b8060051b9150613c5f8483016138bd565b818152918301840191848101908a841115613c7957600080fd5b938501935b83851015613c9757843582529385019390850190613c7e565b809750505050505050613cac6040850161395b565b90509250925092565b634e487b7160e01b600052603260045260246000fd5b634e487b7160e01b600052601160045260246000fd5b600082821015613cf357613cf3613ccb565b500390565b600060208284031215613d0a57600080fd5b81516106a281613830565b600060208083526000845481600182811c915080831680613d3757607f831692505b858310811415613d5557634e487b7160e01b85526022600452602485fd5b878601838152602001818015613d725760018114613d8357613dae565b60ff19861682528782019650613dae565b60008b81526020902060005b86811015613da857815484820152908501908901613d8f565b83019750505b50949998505050505050505050565b600060208284031215613dcf57600080fd5b815160ff811681146106a257600080fd5b600181815b80851115613e1b578160001904821115613e0157613e01613ccb565b80851615613e0e57918102915b93841c9390800290613de5565b509250929050565b600082613e3257506001610f66565b81613e3f57506000610f66565b8160018114613e555760028114613e5f57613e7b565b6001915050610f66565b60ff841115613e7057613e70613ccb565b50506001821b610f66565b5060208310610133831016604e8410600b8410161715613e9e575081810a610f66565b613ea88383613de0565b8060001904821115613ebc57613ebc613ccb565b029392505050565b60006106a28383613e23565b600060ff821660ff84168160ff0481118215151615613ebc57613ebc613ccb565b60006106a260ff841683613e23565b6000816000190483118215151615613f1a57613f1a613ccb565b500290565b600082613f3c57634e487b7160e01b600052601260045260246000fd5b500490565b60008219821115613f5457613f54613ccb565b500190565b600060208284031215613f6b57600080fd5b5051919050565b600060208284031215613f8457600080fd5b81516106a28161394d565b6000600019821415613fa357613fa3613ccb565b5060010190565b600065ffffffffffff808316818516808303821115613fcb57613fcb613ccb565b01949350505050565b600065ffffffffffff83811690831681811015613ff357613ff3613ccb565b039392505050565b6000825160005b8181101561401c5760208186018101518583015201614002565b8181111561402b576000828501525b50919091019291505056fea2646970667358221220b4b6d1d5ae50bf8da46fafbaabf32ea503f30946996a309d9690526e9745039e64736f6c634300080b0033",
  "devdoc": {
    "author": "Zeus, Indigo Review by: JeffX",
    "kind": "dev",
    "methods": {
      "close(uint256)": {
        "params": {
          "_id": "ID of market to close"
        }
      },
      "create(address,uint256[3],bool[2],uint256[2],uint32[2])": {
        "details": "current price should be in 9 decimals.",
        "params": {
          "_booleans": "[capacity in quote, fixed term]",
          "_intervals": "[deposit interval (seconds), tune interval (seconds)]",
          "_market": "[capacity (in REQ or quote), initial price / REQ (18 decimals), debt buffer (3 decimals)]",
          "_quoteToken": "token used to deposit",
          "_terms": "[vesting length (if fixed term) or vested timestamp, conclusion timestamp]"
        },
        "returns": {
          "id_": "        ID of new bond market"
        }
      },
      "currentControlVariable(uint256)": {
        "details": "accounts for control variable adjustment",
        "params": {
          "_id": "ID of market"
        },
        "returns": {
          "_0": "control variable for market in REQ decimals"
        }
      },
      "currentDebt(uint256)": {
        "details": "accounts for debt decay since last deposit",
        "params": {
          "_id": "ID of market"
        },
        "returns": {
          "_0": "current debt for market in REQ decimals"
        }
      },
      "debtDecay(uint256)": {
        "params": {
          "_id": "ID of market"
        },
        "returns": {
          "_0": "amount of debt to decay"
        }
      },
      "debtRatio(uint256)": {
        "details": "uses current debt, which accounts for debt decay since last deposit (vs _debtRatio())",
        "params": {
          "_id": "ID of market"
        },
        "returns": {
          "_0": "debt ratio for market in quote decimals"
        }
      },
      "deposit(uint256,uint256,uint256,address,address)": {
        "params": {
          "_amount": "the amount of quote token to spend",
          "_id": "the ID of the market",
          "_maxPrice": "the maximum price at which to buy",
          "_referral": "the front end operator address",
          "_user": "the recipient of the payout"
        },
        "returns": {
          "expiry_": "    the timestamp at which payout is redeemable",
          "index_": "     the user index of the Note (used to redeem or query information)",
          "payout_": "    the amount of gREQ due"
        }
      },
      "indexesFor(address)": {
        "params": {
          "_user": "the user to query notes for"
        },
        "returns": {
          "_0": "the pending notes for the user"
        }
      },
      "isLive(uint256)": {
        "params": {
          "_id": "ID of market"
        }
      },
      "liveMarketsFor(address)": {
        "params": {
          "_token": "quote token to check for"
        }
      },
      "marketPrice(uint256)": {
        "details": "accounts for debt and control variable decay since last deposit (vs _marketPrice())",
        "params": {
          "_id": "ID of market"
        },
        "returns": {
          "_0": "price for market in REQ decimals price is derived from the equation p = cv * dr where p = price cv = control variable dr = debt ratio dr = d / s where d = debt s = supply of token at market creation d -= ( d * (dt / l) ) where dt = change in time l = length of program"
        }
      },
      "payoutFor(uint256,uint256)": {
        "details": "accounts for debt and control variable decay so it is up to date1e18 = req decimals (9) + market price decimals (9)",
        "params": {
          "_amount": "amount of quote tokens to spend",
          "_id": "ID of market"
        },
        "returns": {
          "_0": "amount of REQ to be paid in REQ decimals"
        }
      },
      "pendingFor(address,uint256)": {
        "params": {
          "_index": "the index of the note in the user's array",
          "_user": "the user that the note belongs to"
        },
        "returns": {
          "matured_": "   if the payout can be redeemed",
          "payout_": "    the payout due, in gREQ"
        }
      },
      "pullNote(address,uint256)": {
        "params": {
          "_from": "the address that approved the note transfer",
          "_index": "the index of the note to transfer (in the sender's array)"
        }
      },
      "pushNote(address,uint256)": {
        "params": {
          "_index": "index of note to approve transfer for",
          "_to": "address to approve note transfer for"
        }
      },
      "redeem(address,uint256[],bool)": {
        "params": {
          "_indexes": "the note indexes to redeem",
          "_sendgREQ": "send payout as gREQ or sREQ",
          "_user": "the user to redeem for"
        },
        "returns": {
          "payout_": "    sum of payout sent, in gREQ"
        }
      },
      "redeemAll(address,bool)": {
        "details": "if possible, query indexesFor() off-chain and input in redeem() to save gas",
        "params": {
          "_sendgREQ": "send payout as gREQ or sREQ",
          "_user": "user to redeem all notes for"
        },
        "returns": {
          "_0": "sum of payout sent, in gREQ"
        }
      }
    },
    "title": "Requiem Bond Depository",
    "version": 1
  },
  "userdoc": {
    "kind": "user",
    "methods": {
      "close(uint256)": {
        "notice": "disable existing market"
      },
      "create(address,uint256[3],bool[2],uint256[2],uint32[2])": {
        "notice": "creates a new market type"
      },
      "currentControlVariable(uint256)": {
        "notice": "up to date control variable"
      },
      "currentDebt(uint256)": {
        "notice": "calculate debt factoring in decay"
      },
      "debtDecay(uint256)": {
        "notice": "amount of debt to decay from total debt for market ID"
      },
      "debtRatio(uint256)": {
        "notice": "calculate current ratio of debt to supply"
      },
      "deposit(uint256,uint256,uint256,address,address)": {
        "notice": "deposit quote tokens in exchange for a bond from a specified market"
      },
      "indexesFor(address)": {
        "notice": "all pending notes for user"
      },
      "isLive(uint256)": {
        "notice": "is a given market accepting deposits"
      },
      "liveMarkets()": {
        "notice": "returns an array of all active market IDs"
      },
      "liveMarketsFor(address)": {
        "notice": "returns an array of all active market IDs for a given quote token"
      },
      "marketPrice(uint256)": {
        "notice": "calculate current market price of quote token in base token"
      },
      "payoutFor(uint256,uint256)": {
        "notice": "payout due for amount of quote tokens"
      },
      "pendingFor(address,uint256)": {
        "notice": "calculate amount available for claim for a single note"
      },
      "pullNote(address,uint256)": {
        "notice": "transfer a note that has been approved by an address"
      },
      "pushNote(address,uint256)": {
        "notice": "approve an address to transfer a note"
      },
      "redeem(address,uint256[],bool)": {
        "notice": "redeem notes for user"
      },
      "redeemAll(address,bool)": {
        "notice": "redeem all redeemable markets for user"
      },
      "setRewards(uint256,uint256)": {
        "notice": "set rewards for front end operators and DAO"
      },
      "whitelist(address)": {
        "notice": "add or remove addresses from the reward whitelist"
      }
    },
    "version": 1
  },
  "storageLayout": {
    "storage": [
      {
        "astId": 11367,
        "contract": "contracts/BondDepository.sol:BondDepository",
        "label": "UNAUTHORIZED",
        "offset": 0,
        "slot": "0",
        "type": "t_string_storage"
      },
      {
        "astId": 11370,
        "contract": "contracts/BondDepository.sol:BondDepository",
        "label": "authority",
        "offset": 0,
        "slot": "1",
        "type": "t_contract(IAuthority)7473"
      },
      {
        "astId": 11467,
        "contract": "contracts/BondDepository.sol:BondDepository",
        "label": "daoReward",
        "offset": 0,
        "slot": "2",
        "type": "t_uint256"
      },
      {
        "astId": 11469,
        "contract": "contracts/BondDepository.sol:BondDepository",
        "label": "refReward",
        "offset": 0,
        "slot": "3",
        "type": "t_uint256"
      },
      {
        "astId": 11473,
        "contract": "contracts/BondDepository.sol:BondDepository",
        "label": "rewards",
        "offset": 0,
        "slot": "4",
        "type": "t_mapping(t_address,t_uint256)"
      },
      {
        "astId": 11477,
        "contract": "contracts/BondDepository.sol:BondDepository",
        "label": "whitelisted",
        "offset": 0,
        "slot": "5",
        "type": "t_mapping(t_address,t_bool)"
      },
      {
        "astId": 11641,
        "contract": "contracts/BondDepository.sol:BondDepository",
        "label": "notes",
        "offset": 0,
        "slot": "6",
        "type": "t_mapping(t_address,t_array(t_struct(Note)7828_storage)dyn_storage)"
      },
      {
        "astId": 11647,
        "contract": "contracts/BondDepository.sol:BondDepository",
        "label": "noteTransfers",
        "offset": 0,
        "slot": "7",
        "type": "t_mapping(t_address,t_mapping(t_uint256,t_address))"
      },
      {
        "astId": 11656,
        "contract": "contracts/BondDepository.sol:BondDepository",
        "label": "treasury",
        "offset": 0,
        "slot": "8",
        "type": "t_contract(ITreasury)8612"
      },
      {
        "astId": 337,
        "contract": "contracts/BondDepository.sol:BondDepository",
        "label": "markets",
        "offset": 0,
        "slot": "9",
        "type": "t_array(t_struct(Market)7511_storage)dyn_storage"
      },
      {
        "astId": 341,
        "contract": "contracts/BondDepository.sol:BondDepository",
        "label": "terms",
        "offset": 0,
        "slot": "10",
        "type": "t_array(t_struct(Terms)7522_storage)dyn_storage"
      },
      {
        "astId": 345,
        "contract": "contracts/BondDepository.sol:BondDepository",
        "label": "metadata",
        "offset": 0,
        "slot": "11",
        "type": "t_array(t_struct(Metadata)7535_storage)dyn_storage"
      },
      {
        "astId": 350,
        "contract": "contracts/BondDepository.sol:BondDepository",
        "label": "adjustments",
        "offset": 0,
        "slot": "12",
        "type": "t_mapping(t_uint256,t_struct(Adjustment)7544_storage)"
      },
      {
        "astId": 355,
        "contract": "contracts/BondDepository.sol:BondDepository",
        "label": "marketsForQuote",
        "offset": 0,
        "slot": "13",
        "type": "t_mapping(t_address,t_array(t_uint256)dyn_storage)"
      }
    ],
    "types": {
      "t_address": {
        "encoding": "inplace",
        "label": "address",
        "numberOfBytes": "20"
      },
      "t_array(t_struct(Market)7511_storage)dyn_storage": {
        "base": "t_struct(Market)7511_storage",
        "encoding": "dynamic_array",
        "label": "struct IBondDepository.Market[]",
        "numberOfBytes": "32"
      },
      "t_array(t_struct(Metadata)7535_storage)dyn_storage": {
        "base": "t_struct(Metadata)7535_storage",
        "encoding": "dynamic_array",
        "label": "struct IBondDepository.Metadata[]",
        "numberOfBytes": "32"
      },
      "t_array(t_struct(Note)7828_storage)dyn_storage": {
        "base": "t_struct(Note)7828_storage",
        "encoding": "dynamic_array",
        "label": "struct INoteKeeper.Note[]",
        "numberOfBytes": "32"
      },
      "t_array(t_struct(Terms)7522_storage)dyn_storage": {
        "base": "t_struct(Terms)7522_storage",
        "encoding": "dynamic_array",
        "label": "struct IBondDepository.Terms[]",
        "numberOfBytes": "32"
      },
      "t_array(t_uint256)dyn_storage": {
        "base": "t_uint256",
        "encoding": "dynamic_array",
        "label": "uint256[]",
        "numberOfBytes": "32"
      },
      "t_bool": {
        "encoding": "inplace",
        "label": "bool",
        "numberOfBytes": "1"
      },
      "t_contract(IAuthority)7473": {
        "encoding": "inplace",
        "label": "contract IAuthority",
        "numberOfBytes": "20"
      },
      "t_contract(IERC20)7320": {
        "encoding": "inplace",
        "label": "contract IERC20",
        "numberOfBytes": "20"
      },
      "t_contract(ITreasury)8612": {
        "encoding": "inplace",
        "label": "contract ITreasury",
        "numberOfBytes": "20"
      },
      "t_mapping(t_address,t_array(t_struct(Note)7828_storage)dyn_storage)": {
        "encoding": "mapping",
        "key": "t_address",
        "label": "mapping(address => struct INoteKeeper.Note[])",
        "numberOfBytes": "32",
        "value": "t_array(t_struct(Note)7828_storage)dyn_storage"
      },
      "t_mapping(t_address,t_array(t_uint256)dyn_storage)": {
        "encoding": "mapping",
        "key": "t_address",
        "label": "mapping(address => uint256[])",
        "numberOfBytes": "32",
        "value": "t_array(t_uint256)dyn_storage"
      },
      "t_mapping(t_address,t_bool)": {
        "encoding": "mapping",
        "key": "t_address",
        "label": "mapping(address => bool)",
        "numberOfBytes": "32",
        "value": "t_bool"
      },
      "t_mapping(t_address,t_mapping(t_uint256,t_address))": {
        "encoding": "mapping",
        "key": "t_address",
        "label": "mapping(address => mapping(uint256 => address))",
        "numberOfBytes": "32",
        "value": "t_mapping(t_uint256,t_address)"
      },
      "t_mapping(t_address,t_uint256)": {
        "encoding": "mapping",
        "key": "t_address",
        "label": "mapping(address => uint256)",
        "numberOfBytes": "32",
        "value": "t_uint256"
      },
      "t_mapping(t_uint256,t_address)": {
        "encoding": "mapping",
        "key": "t_uint256",
        "label": "mapping(uint256 => address)",
        "numberOfBytes": "32",
        "value": "t_address"
      },
      "t_mapping(t_uint256,t_struct(Adjustment)7544_storage)": {
        "encoding": "mapping",
        "key": "t_uint256",
        "label": "mapping(uint256 => struct IBondDepository.Adjustment)",
        "numberOfBytes": "32",
        "value": "t_struct(Adjustment)7544_storage"
      },
      "t_string_storage": {
        "encoding": "bytes",
        "label": "string",
        "numberOfBytes": "32"
      },
      "t_struct(Adjustment)7544_storage": {
        "encoding": "inplace",
        "label": "struct IBondDepository.Adjustment",
        "members": [
          {
            "astId": 7537,
            "contract": "contracts/BondDepository.sol:BondDepository",
            "label": "change",
            "offset": 0,
            "slot": "0",
            "type": "t_uint256"
          },
          {
            "astId": 7539,
            "contract": "contracts/BondDepository.sol:BondDepository",
            "label": "lastAdjustment",
            "offset": 0,
            "slot": "1",
            "type": "t_uint48"
          },
          {
            "astId": 7541,
            "contract": "contracts/BondDepository.sol:BondDepository",
            "label": "timeToAdjusted",
            "offset": 6,
            "slot": "1",
            "type": "t_uint48"
          },
          {
            "astId": 7543,
            "contract": "contracts/BondDepository.sol:BondDepository",
            "label": "active",
            "offset": 12,
            "slot": "1",
            "type": "t_bool"
          }
        ],
        "numberOfBytes": "64"
      },
      "t_struct(Market)7511_storage": {
        "encoding": "inplace",
        "label": "struct IBondDepository.Market",
        "members": [
          {
            "astId": 7497,
            "contract": "contracts/BondDepository.sol:BondDepository",
            "label": "capacity",
            "offset": 0,
            "slot": "0",
            "type": "t_uint256"
          },
          {
            "astId": 7500,
            "contract": "contracts/BondDepository.sol:BondDepository",
            "label": "quoteToken",
            "offset": 0,
            "slot": "1",
            "type": "t_contract(IERC20)7320"
          },
          {
            "astId": 7502,
            "contract": "contracts/BondDepository.sol:BondDepository",
            "label": "capacityInQuote",
            "offset": 20,
            "slot": "1",
            "type": "t_bool"
          },
          {
            "astId": 7504,
            "contract": "contracts/BondDepository.sol:BondDepository",
            "label": "totalDebt",
            "offset": 0,
            "slot": "2",
            "type": "t_uint256"
          },
          {
            "astId": 7506,
            "contract": "contracts/BondDepository.sol:BondDepository",
            "label": "maxPayout",
            "offset": 0,
            "slot": "3",
            "type": "t_uint256"
          },
          {
            "astId": 7508,
            "contract": "contracts/BondDepository.sol:BondDepository",
            "label": "sold",
            "offset": 0,
            "slot": "4",
            "type": "t_uint256"
          },
          {
            "astId": 7510,
            "contract": "contracts/BondDepository.sol:BondDepository",
            "label": "purchased",
            "offset": 0,
            "slot": "5",
            "type": "t_uint256"
          }
        ],
        "numberOfBytes": "192"
      },
      "t_struct(Metadata)7535_storage": {
        "encoding": "inplace",
        "label": "struct IBondDepository.Metadata",
        "members": [
          {
            "astId": 7524,
            "contract": "contracts/BondDepository.sol:BondDepository",
            "label": "lastTune",
            "offset": 0,
            "slot": "0",
            "type": "t_uint48"
          },
          {
            "astId": 7526,
            "contract": "contracts/BondDepository.sol:BondDepository",
            "label": "lastDecay",
            "offset": 6,
            "slot": "0",
            "type": "t_uint48"
          },
          {
            "astId": 7528,
            "contract": "contracts/BondDepository.sol:BondDepository",
            "label": "length",
            "offset": 12,
            "slot": "0",
            "type": "t_uint48"
          },
          {
            "astId": 7530,
            "contract": "contracts/BondDepository.sol:BondDepository",
            "label": "depositInterval",
            "offset": 18,
            "slot": "0",
            "type": "t_uint48"
          },
          {
            "astId": 7532,
            "contract": "contracts/BondDepository.sol:BondDepository",
            "label": "tuneInterval",
            "offset": 24,
            "slot": "0",
            "type": "t_uint48"
          },
          {
            "astId": 7534,
            "contract": "contracts/BondDepository.sol:BondDepository",
            "label": "quoteDecimals",
            "offset": 30,
            "slot": "0",
            "type": "t_uint8"
          }
        ],
        "numberOfBytes": "32"
      },
      "t_struct(Note)7828_storage": {
        "encoding": "inplace",
        "label": "struct INoteKeeper.Note",
        "members": [
          {
            "astId": 7819,
            "contract": "contracts/BondDepository.sol:BondDepository",
            "label": "payout",
            "offset": 0,
            "slot": "0",
            "type": "t_uint256"
          },
          {
            "astId": 7821,
            "contract": "contracts/BondDepository.sol:BondDepository",
            "label": "created",
            "offset": 0,
            "slot": "1",
            "type": "t_uint48"
          },
          {
            "astId": 7823,
            "contract": "contracts/BondDepository.sol:BondDepository",
            "label": "matured",
            "offset": 6,
            "slot": "1",
            "type": "t_uint48"
          },
          {
            "astId": 7825,
            "contract": "contracts/BondDepository.sol:BondDepository",
            "label": "redeemed",
            "offset": 12,
            "slot": "1",
            "type": "t_uint48"
          },
          {
            "astId": 7827,
            "contract": "contracts/BondDepository.sol:BondDepository",
            "label": "marketID",
            "offset": 18,
            "slot": "1",
            "type": "t_uint48"
          }
        ],
        "numberOfBytes": "64"
      },
      "t_struct(Terms)7522_storage": {
        "encoding": "inplace",
        "label": "struct IBondDepository.Terms",
        "members": [
          {
            "astId": 7513,
            "contract": "contracts/BondDepository.sol:BondDepository",
            "label": "fixedTerm",
            "offset": 0,
            "slot": "0",
            "type": "t_bool"
          },
          {
            "astId": 7515,
            "contract": "contracts/BondDepository.sol:BondDepository",
            "label": "controlVariable",
            "offset": 0,
            "slot": "1",
            "type": "t_uint256"
          },
          {
            "astId": 7517,
            "contract": "contracts/BondDepository.sol:BondDepository",
            "label": "vesting",
            "offset": 0,
            "slot": "2",
            "type": "t_uint48"
          },
          {
            "astId": 7519,
            "contract": "contracts/BondDepository.sol:BondDepository",
            "label": "conclusion",
            "offset": 6,
            "slot": "2",
            "type": "t_uint48"
          },
          {
            "astId": 7521,
            "contract": "contracts/BondDepository.sol:BondDepository",
            "label": "maxDebt",
            "offset": 0,
            "slot": "3",
            "type": "t_uint256"
          }
        ],
        "numberOfBytes": "128"
      },
      "t_uint256": {
        "encoding": "inplace",
        "label": "uint256",
        "numberOfBytes": "32"
      },
      "t_uint48": {
        "encoding": "inplace",
        "label": "uint48",
        "numberOfBytes": "6"
      },
      "t_uint8": {
        "encoding": "inplace",
        "label": "uint8",
        "numberOfBytes": "1"
      }
    }
  }
}