{
  "address": "0x4ed7c70F96B99c776995fB64377f0d4aB3B0e1C1",
  "abi": [
    {
      "inputs": [
        {
          "internalType": "address",
          "name": "_REQ",
          "type": "address"
        }
      ],
      "stateMutability": "nonpayable",
      "type": "constructor"
    },
    {
      "inputs": [],
      "name": "REQ",
      "outputs": [
        {
          "internalType": "address",
          "name": "",
          "type": "address"
        }
      ],
      "stateMutability": "view",
      "type": "function"
    },
    {
      "inputs": [
        {
          "internalType": "address",
          "name": "_pair",
          "type": "address"
        }
      ],
      "name": "getTotalValue",
      "outputs": [
        {
          "internalType": "uint256",
          "name": "_value",
          "type": "uint256"
        }
      ],
      "stateMutability": "view",
      "type": "function"
    },
    {
      "inputs": [
        {
          "internalType": "address",
          "name": "_pair",
          "type": "address"
        }
      ],
      "name": "markdown",
      "outputs": [
        {
          "internalType": "uint256",
          "name": "",
          "type": "uint256"
        }
      ],
      "stateMutability": "view",
      "type": "function"
    },
    {
      "inputs": [
        {
          "internalType": "address",
          "name": "_pair",
          "type": "address"
        },
        {
          "internalType": "uint256",
          "name": "amount_",
          "type": "uint256"
        }
      ],
      "name": "valuation",
      "outputs": [
        {
          "internalType": "uint256",
          "name": "_value",
          "type": "uint256"
        }
      ],
      "stateMutability": "view",
      "type": "function"
    }
  ],
  "transactionHash": "0x019a0a0a9274d5042957fe97b816e5bd531c10c1e330da10d909652e320cf97f",
  "args": [
    "0x0B306BF915C4d645ff596e518fAf3F9669b97016"
  ],
  "solcInputHash": "c0cfa8d94787ec555e3e51d99860a7c2",
  "bytecode": "0x60c06040526807aa9d963722ce6d7060805234801561001d57600080fd5b50604051610d67380380610d6783398101604081905261003c91610060565b6001600160a01b03811661004f57600080fd5b6001600160a01b031660a052610090565b60006020828403121561007257600080fd5b81516001600160a01b038116811461008957600080fd5b9392505050565b60805160a051610c9e6100c96000396000818160a201528181610283015281816102da01526105ef0152600061067b0152610c9e6000f3fe608060405234801561001057600080fd5b506004361061004c5760003560e01c806332da80a3146100515780634249719f14610077578063686375491461008a578063d26700251461009d575b600080fd5b61006461005f366004610873565b6100e9565b6040519081526020015b60405180910390f35b610064610085366004610890565b6103c0565b610064610098366004610873565b610455565b6100c47f000000000000000000000000000000000000000000000000000000000000000081565b60405173ffffffffffffffffffffffffffffffffffffffff909116815260200161006e565b60008060008373ffffffffffffffffffffffffffffffffffffffff16630902f1ac6040518163ffffffff1660e01b8152600401606060405180830381865afa158015610139573d6000803e3d6000fd5b505050506040513d601f19601f8201168201806040525081019061015d91906108ee565b506dffffffffffffffffffffffffffff1691506dffffffffffffffffffffffffffff1691506000808573ffffffffffffffffffffffffffffffffffffffff166332bfe4696040518163ffffffff1660e01b81526004016040805180830381865afa1580156101cf573d6000803e3d6000fd5b505050506040513d601f19601f820116820180604052508101906101f39190610931565b9150915060008060008873ffffffffffffffffffffffffffffffffffffffff16630dfe16816040518163ffffffff1660e01b8152600401602060405180830381865afa158015610247573d6000803e3d6000fd5b505050506040513d601f19601f8201168201806040525081019061026b9190610964565b73ffffffffffffffffffffffffffffffffffffffff167f000000000000000000000000000000000000000000000000000000000000000073ffffffffffffffffffffffffffffffffffffffff16146102c5578685856102c9565b8584865b9250925092506102d889610455565b7f000000000000000000000000000000000000000000000000000000000000000073ffffffffffffffffffffffffffffffffffffffff1663313ce5676040518163ffffffff1660e01b8152600401602060405180830381865afa158015610343573d6000803e3d6000fd5b505050506040513d601f19601f820116820180604052508101906103679190610981565b61037290600a610af5565b8263ffffffff16858563ffffffff1661038b9190610b04565b6103959190610b70565b61039f9086610bab565b6103a99190610b04565b6103b39190610b70565b9998505050505050505050565b6000806103cc84610455565b905060008473ffffffffffffffffffffffffffffffffffffffff166318160ddd6040518163ffffffff1660e01b8152600401602060405180830381865afa15801561041b573d6000803e3d6000fd5b505050506040513d601f19601f8201168201806040525081019061043f9190610bc3565b905061044c8285836106a9565b95945050505050565b60008060008373ffffffffffffffffffffffffffffffffffffffff16630902f1ac6040518163ffffffff1660e01b8152600401606060405180830381865afa1580156104a5573d6000803e3d6000fd5b505050506040513d601f19601f820116820180604052508101906104c991906108ee565b506dffffffffffffffffffffffffffff1691506dffffffffffffffffffffffffffff1691506000808573ffffffffffffffffffffffffffffffffffffffff166332bfe4696040518163ffffffff1660e01b81526004016040805180830381865afa15801561053b573d6000803e3d6000fd5b505050506040513d601f19601f8201168201806040525081019061055f9190610931565b9150915060008060008873ffffffffffffffffffffffffffffffffffffffff16630dfe16816040518163ffffffff1660e01b8152600401602060405180830381865afa1580156105b3573d6000803e3d6000fd5b505050506040513d601f19601f820116820180604052508101906105d79190610964565b73ffffffffffffffffffffffffffffffffffffffff167f000000000000000000000000000000000000000000000000000000000000000073ffffffffffffffffffffffffffffffffffffffff16146106325786868686610637565b858785875b93509350509250670de0b6b3a764000061067582836106569190610bdc565b6106608580610bdc565b61066a9190610c08565b63ffffffff16610712565b61069f857f0000000000000000000000000000000000000000000000000000000000000000610b04565b6103a99190610b70565b60006106b6848484610782565b9050600082806106c8576106c8610b41565b848609111561070b577fffffffffffffffffffffffffffffffffffffffffffffffffffffffffffffffff81106106fd57600080fd5b8061070781610c30565b9150505b9392505050565b60006003821115610773575080600061072c600283610b70565b610737906001610bab565b90505b8181101561076d579050806002816107528186610b70565b61075c9190610bab565b6107669190610b70565b905061073a565b50919050565b811561077d575060015b919050565b600080807fffffffffffffffffffffffffffffffffffffffffffffffffffffffffffffffff858709858702925082811083820303915050806000036107d957600084116107ce57600080fd5b50829004905061070b565b8084116107e557600080fd5b60008486880960026001871981018816978890046003810283188082028403028082028403028082028403028082028403028082028403029081029092039091026000889003889004909101858311909403939093029303949094049190911702949350505050565b73ffffffffffffffffffffffffffffffffffffffff8116811461087057600080fd5b50565b60006020828403121561088557600080fd5b813561070b8161084e565b600080604083850312156108a357600080fd5b82356108ae8161084e565b946020939093013593505050565b80516dffffffffffffffffffffffffffff8116811461077d57600080fd5b805163ffffffff8116811461077d57600080fd5b60008060006060848603121561090357600080fd5b61090c846108bc565b925061091a602085016108bc565b9150610928604085016108da565b90509250925092565b6000806040838503121561094457600080fd5b61094d836108da565b915061095b602084016108da565b90509250929050565b60006020828403121561097657600080fd5b815161070b8161084e565b60006020828403121561099357600080fd5b815160ff8116811461070b57600080fd5b7f4e487b7100000000000000000000000000000000000000000000000000000000600052601160045260246000fd5b600181815b80851115610a2c57817fffffffffffffffffffffffffffffffffffffffffffffffffffffffffffffffff04821115610a1257610a126109a4565b80851615610a1f57918102915b93841c93908002906109d8565b509250929050565b600082610a4357506001610aef565b81610a5057506000610aef565b8160018114610a665760028114610a7057610a8c565b6001915050610aef565b60ff841115610a8157610a816109a4565b50506001821b610aef565b5060208310610133831016604e8410600b8410161715610aaf575081810a610aef565b610ab983836109d3565b807fffffffffffffffffffffffffffffffffffffffffffffffffffffffffffffffff04821115610aeb57610aeb6109a4565b0290505b92915050565b600061070b60ff841683610a34565b6000817fffffffffffffffffffffffffffffffffffffffffffffffffffffffffffffffff0483118215151615610b3c57610b3c6109a4565b500290565b7f4e487b7100000000000000000000000000000000000000000000000000000000600052601260045260246000fd5b600082610ba6577f4e487b7100000000000000000000000000000000000000000000000000000000600052601260045260246000fd5b500490565b60008219821115610bbe57610bbe6109a4565b500190565b600060208284031215610bd557600080fd5b5051919050565b600063ffffffff80831681851681830481118215151615610bff57610bff6109a4565b02949350505050565b600063ffffffff808316818516808303821115610c2757610c276109a4565b01949350505050565b60007fffffffffffffffffffffffffffffffffffffffffffffffffffffffffffffffff8203610c6157610c616109a4565b506001019056fea26469706673582212202c3a1bbed48cc5546c47c9fea79f232bb767dfe5163334656761222eaff3056964736f6c634300080d0033",
  "devdoc": {
    "kind": "dev",
    "methods": {
      "getTotalValue(address)": {
        "params": {
          "_pair": "general pair that has the RequiemSwap interface implemented  - the value is calculated as the geometric average of input and output  - is consistent with the uniswapV2-type case"
        }
      },
      "valuation(address,uint256)": {
        "params": {
          "_pair": "general pair that has the RequiemSwap interface implemented",
          "amount_": "the amount of LP to price in REQ  - is consistent with the uniswapV2-type case"
        }
      }
    },
    "version": 1
  },
  "userdoc": {
    "kind": "user",
    "methods": {
      "getTotalValue(address)": {
        "notice": "note for general pairs the price does not necessarily satisfy the conditon that the lp value consists 50% of the one and the other token since the mid price is the quotient of the reserves. That is not necessarily the case for general pairs, therefore, we have to calculate the price separately and apply it to the reserve amount for conversion - calculates the total liquidity value denominated in the provided token - uses the 1bps ouytput reserves for that calculation to avoid slippage to   have a too large impact - the sencond token input argument is ignored when using pools with only 2 tokens"
      },
      "valuation(address,uint256)": {
        "notice": "- calculates the value in reqt of the input LP amount provided"
      }
    },
    "notice": "Bonding calculator for weighted pairs",
    "version": 1
  },
  "storageLayout": {
    "storage": [],
    "types": null
  }
}