{
  "address": "0x322813Fd9A801c5507c9de605d63CEA4f2CE6c44",
  "abi": [
    {
      "inputs": [],
      "stateMutability": "nonpayable",
      "type": "constructor"
    },
    {
      "anonymous": false,
      "inputs": [
        {
          "indexed": true,
          "internalType": "address",
          "name": "owner",
          "type": "address"
        },
        {
          "indexed": true,
          "internalType": "address",
          "name": "spender",
          "type": "address"
        },
        {
          "indexed": false,
          "internalType": "uint256",
          "name": "value",
          "type": "uint256"
        }
      ],
      "name": "Approval",
      "type": "event"
    },
    {
      "anonymous": false,
      "inputs": [
        {
          "indexed": true,
          "internalType": "uint256",
          "name": "epoch",
          "type": "uint256"
        },
        {
          "indexed": false,
          "internalType": "uint256",
          "name": "rebase",
          "type": "uint256"
        },
        {
          "indexed": false,
          "internalType": "uint256",
          "name": "index",
          "type": "uint256"
        }
      ],
      "name": "LogRebase",
      "type": "event"
    },
    {
      "anonymous": false,
      "inputs": [
        {
          "indexed": false,
          "internalType": "address",
          "name": "stakingContract",
          "type": "address"
        }
      ],
      "name": "LogStakingContractUpdated",
      "type": "event"
    },
    {
      "anonymous": false,
      "inputs": [
        {
          "indexed": true,
          "internalType": "uint256",
          "name": "epoch",
          "type": "uint256"
        },
        {
          "indexed": false,
          "internalType": "uint256",
          "name": "timestamp",
          "type": "uint256"
        },
        {
          "indexed": false,
          "internalType": "uint256",
          "name": "_totalSupply",
          "type": "uint256"
        }
      ],
      "name": "LogSupply",
      "type": "event"
    },
    {
      "anonymous": false,
      "inputs": [
        {
          "indexed": true,
          "internalType": "address",
          "name": "previousOwner",
          "type": "address"
        },
        {
          "indexed": true,
          "internalType": "address",
          "name": "newOwner",
          "type": "address"
        }
      ],
      "name": "OwnershipPulled",
      "type": "event"
    },
    {
      "anonymous": false,
      "inputs": [
        {
          "indexed": true,
          "internalType": "address",
          "name": "previousOwner",
          "type": "address"
        },
        {
          "indexed": true,
          "internalType": "address",
          "name": "newOwner",
          "type": "address"
        }
      ],
      "name": "OwnershipPushed",
      "type": "event"
    },
    {
      "anonymous": false,
      "inputs": [
        {
          "indexed": true,
          "internalType": "address",
          "name": "from",
          "type": "address"
        },
        {
          "indexed": true,
          "internalType": "address",
          "name": "to",
          "type": "address"
        },
        {
          "indexed": false,
          "internalType": "uint256",
          "name": "value",
          "type": "uint256"
        }
      ],
      "name": "Transfer",
      "type": "event"
    },
    {
      "inputs": [],
      "name": "DOMAIN_SEPARATOR",
      "outputs": [
        {
          "internalType": "bytes32",
          "name": "",
          "type": "bytes32"
        }
      ],
      "stateMutability": "view",
      "type": "function"
    },
    {
      "inputs": [],
      "name": "INDEX",
      "outputs": [
        {
          "internalType": "uint256",
          "name": "",
          "type": "uint256"
        }
      ],
      "stateMutability": "view",
      "type": "function"
    },
    {
      "inputs": [
        {
          "internalType": "address",
          "name": "owner_",
          "type": "address"
        },
        {
          "internalType": "address",
          "name": "spender",
          "type": "address"
        }
      ],
      "name": "allowance",
      "outputs": [
        {
          "internalType": "uint256",
          "name": "",
          "type": "uint256"
        }
      ],
      "stateMutability": "view",
      "type": "function"
    },
    {
      "inputs": [
        {
          "internalType": "address",
          "name": "spender",
          "type": "address"
        },
        {
          "internalType": "uint256",
          "name": "value",
          "type": "uint256"
        }
      ],
      "name": "approve",
      "outputs": [
        {
          "internalType": "bool",
          "name": "",
          "type": "bool"
        }
      ],
      "stateMutability": "nonpayable",
      "type": "function"
    },
    {
      "inputs": [
        {
          "internalType": "uint256",
          "name": "gons",
          "type": "uint256"
        }
      ],
      "name": "balanceForGons",
      "outputs": [
        {
          "internalType": "uint256",
          "name": "",
          "type": "uint256"
        }
      ],
      "stateMutability": "view",
      "type": "function"
    },
    {
      "inputs": [
        {
          "internalType": "address",
          "name": "who",
          "type": "address"
        }
      ],
      "name": "balanceOf",
      "outputs": [
        {
          "internalType": "uint256",
          "name": "",
          "type": "uint256"
        }
      ],
      "stateMutability": "view",
      "type": "function"
    },
    {
      "inputs": [],
      "name": "circulatingSupply",
      "outputs": [
        {
          "internalType": "uint256",
          "name": "",
          "type": "uint256"
        }
      ],
      "stateMutability": "view",
      "type": "function"
    },
    {
      "inputs": [],
      "name": "decimals",
      "outputs": [
        {
          "internalType": "uint8",
          "name": "",
          "type": "uint8"
        }
      ],
      "stateMutability": "view",
      "type": "function"
    },
    {
      "inputs": [
        {
          "internalType": "address",
          "name": "spender",
          "type": "address"
        },
        {
          "internalType": "uint256",
          "name": "subtractedValue",
          "type": "uint256"
        }
      ],
      "name": "decreaseAllowance",
      "outputs": [
        {
          "internalType": "bool",
          "name": "",
          "type": "bool"
        }
      ],
      "stateMutability": "nonpayable",
      "type": "function"
    },
    {
      "inputs": [
        {
          "internalType": "uint256",
          "name": "amount",
          "type": "uint256"
        }
      ],
      "name": "gonsForBalance",
      "outputs": [
        {
          "internalType": "uint256",
          "name": "",
          "type": "uint256"
        }
      ],
      "stateMutability": "view",
      "type": "function"
    },
    {
      "inputs": [
        {
          "internalType": "address",
          "name": "spender",
          "type": "address"
        },
        {
          "internalType": "uint256",
          "name": "addedValue",
          "type": "uint256"
        }
      ],
      "name": "increaseAllowance",
      "outputs": [
        {
          "internalType": "bool",
          "name": "",
          "type": "bool"
        }
      ],
      "stateMutability": "nonpayable",
      "type": "function"
    },
    {
      "inputs": [],
      "name": "index",
      "outputs": [
        {
          "internalType": "uint256",
          "name": "",
          "type": "uint256"
        }
      ],
      "stateMutability": "view",
      "type": "function"
    },
    {
      "inputs": [
        {
          "internalType": "address",
          "name": "stakingContract_",
          "type": "address"
        }
      ],
      "name": "initialize",
      "outputs": [
        {
          "internalType": "bool",
          "name": "",
          "type": "bool"
        }
      ],
      "stateMutability": "nonpayable",
      "type": "function"
    },
    {
      "inputs": [],
      "name": "initializer",
      "outputs": [
        {
          "internalType": "address",
          "name": "",
          "type": "address"
        }
      ],
      "stateMutability": "view",
      "type": "function"
    },
    {
      "inputs": [],
      "name": "name",
      "outputs": [
        {
          "internalType": "string",
          "name": "",
          "type": "string"
        }
      ],
      "stateMutability": "view",
      "type": "function"
    },
    {
      "inputs": [
        {
          "internalType": "address",
          "name": "owner",
          "type": "address"
        }
      ],
      "name": "nonces",
      "outputs": [
        {
          "internalType": "uint256",
          "name": "",
          "type": "uint256"
        }
      ],
      "stateMutability": "view",
      "type": "function"
    },
    {
      "inputs": [
        {
          "internalType": "address",
          "name": "owner",
          "type": "address"
        },
        {
          "internalType": "address",
          "name": "spender",
          "type": "address"
        },
        {
          "internalType": "uint256",
          "name": "value",
          "type": "uint256"
        },
        {
          "internalType": "uint256",
          "name": "deadline",
          "type": "uint256"
        },
        {
          "internalType": "uint8",
          "name": "v",
          "type": "uint8"
        },
        {
          "internalType": "bytes32",
          "name": "r",
          "type": "bytes32"
        },
        {
          "internalType": "bytes32",
          "name": "s",
          "type": "bytes32"
        }
      ],
      "name": "permit",
      "outputs": [],
      "stateMutability": "nonpayable",
      "type": "function"
    },
    {
      "inputs": [],
      "name": "policy",
      "outputs": [
        {
          "internalType": "address",
          "name": "",
          "type": "address"
        }
      ],
      "stateMutability": "view",
      "type": "function"
    },
    {
      "inputs": [],
      "name": "pullManagement",
      "outputs": [],
      "stateMutability": "nonpayable",
      "type": "function"
    },
    {
      "inputs": [
        {
          "internalType": "address",
          "name": "newOwner_",
          "type": "address"
        }
      ],
      "name": "pushManagement",
      "outputs": [],
      "stateMutability": "nonpayable",
      "type": "function"
    },
    {
      "inputs": [
        {
          "internalType": "uint256",
          "name": "profit_",
          "type": "uint256"
        },
        {
          "internalType": "uint256",
          "name": "epoch_",
          "type": "uint256"
        }
      ],
      "name": "rebase",
      "outputs": [
        {
          "internalType": "uint256",
          "name": "",
          "type": "uint256"
        }
      ],
      "stateMutability": "nonpayable",
      "type": "function"
    },
    {
      "inputs": [
        {
          "internalType": "uint256",
          "name": "",
          "type": "uint256"
        }
      ],
      "name": "rebases",
      "outputs": [
        {
          "internalType": "uint256",
          "name": "epoch",
          "type": "uint256"
        },
        {
          "internalType": "uint256",
          "name": "rebase",
          "type": "uint256"
        },
        {
          "internalType": "uint256",
          "name": "totalStakedBefore",
          "type": "uint256"
        },
        {
          "internalType": "uint256",
          "name": "totalStakedAfter",
          "type": "uint256"
        },
        {
          "internalType": "uint256",
          "name": "amountRebased",
          "type": "uint256"
        },
        {
          "internalType": "uint256",
          "name": "index",
          "type": "uint256"
        },
        {
          "internalType": "uint256",
          "name": "blockNumberOccured",
          "type": "uint256"
        }
      ],
      "stateMutability": "view",
      "type": "function"
    },
    {
      "inputs": [],
      "name": "renounceManagement",
      "outputs": [],
      "stateMutability": "nonpayable",
      "type": "function"
    },
    {
      "inputs": [
        {
          "internalType": "uint256",
          "name": "_INDEX",
          "type": "uint256"
        }
      ],
      "name": "setIndex",
      "outputs": [
        {
          "internalType": "bool",
          "name": "",
          "type": "bool"
        }
      ],
      "stateMutability": "nonpayable",
      "type": "function"
    },
    {
      "inputs": [],
      "name": "stakingContract",
      "outputs": [
        {
          "internalType": "address",
          "name": "",
          "type": "address"
        }
      ],
      "stateMutability": "view",
      "type": "function"
    },
    {
      "inputs": [],
      "name": "symbol",
      "outputs": [
        {
          "internalType": "string",
          "name": "",
          "type": "string"
        }
      ],
      "stateMutability": "view",
      "type": "function"
    },
    {
      "inputs": [],
      "name": "totalSupply",
      "outputs": [
        {
          "internalType": "uint256",
          "name": "",
          "type": "uint256"
        }
      ],
      "stateMutability": "view",
      "type": "function"
    },
    {
      "inputs": [
        {
          "internalType": "address",
          "name": "to",
          "type": "address"
        },
        {
          "internalType": "uint256",
          "name": "value",
          "type": "uint256"
        }
      ],
      "name": "transfer",
      "outputs": [
        {
          "internalType": "bool",
          "name": "",
          "type": "bool"
        }
      ],
      "stateMutability": "nonpayable",
      "type": "function"
    },
    {
      "inputs": [
        {
          "internalType": "address",
          "name": "from",
          "type": "address"
        },
        {
          "internalType": "address",
          "name": "to",
          "type": "address"
        },
        {
          "internalType": "uint256",
          "name": "value",
          "type": "uint256"
        }
      ],
      "name": "transferFrom",
      "outputs": [
        {
          "internalType": "bool",
          "name": "",
          "type": "bool"
        }
      ],
      "stateMutability": "nonpayable",
      "type": "function"
    }
  ],
  "transactionHash": "0x40320e0a8c056b2b1a0648940e4e95944781ccba4087da2de50540bb55ab63ad",
  "args": [],
  "solcInputHash": "c0cfa8d94787ec555e3e51d99860a7c2",
  "bytecode": "0x6101006040527f6e71edae12b1b97f4d1f60370fef10105fa2faae0126114a169c64845d6126c960e0523480156200003657600080fd5b50604051806040016040528060048152602001637352455160e01b81525080604051806040016040528060018152602001603160f81b8152506040518060400160405280600e81526020016d5374616b6564205265717569656d60901b815250604051806040016040528060048152602001637352455160e01b81525060128260039080519060200190620000cd929190620001c7565b508151620000e3906004906020850190620001c7565b506005805460ff90921660ff1990921691909117905550508151602092830120608052805191012060a052507f8b73c3c69bb8fe3d512ecc4cf759cc79239f7b179b0ffacaa9a75d522b39400f60c052600780546001600160a01b031916339081179091556040516000907fea8258f2d9ddb679928cf34b78cf645b7feda9acc828e4dd82d014eaae270eba908290a3600a80546001600160a01b031916331790556a0422ca8b0a00a4250000006002819055620001a48160001962000283565b620001b2906000196200029a565b620001be9190620002c0565b600d5562000313565b828054620001d590620002d7565b90600052602060002090601f016020900481019282620001f9576000855562000244565b82601f106200021457805160ff191683800117855562000244565b8280016001018555821562000244579182015b828111156200024457825182559160200191906001019062000227565b506200025292915062000256565b5090565b5b8082111562000252576000815560010162000257565b634e487b7160e01b600052601260045260246000fd5b6000826200029557620002956200026d565b500690565b600082821015620002bb57634e487b7160e01b600052601160045260246000fd5b500390565b600082620002d257620002d26200026d565b500490565b600181811c90821680620002ec57607f821691505b6020821081036200030d57634e487b7160e01b600052602260045260246000fd5b50919050565b60805160a05160c05160e051611cad620003626000396000611485015260008181610a8e01526117ca015260008181610ad0015261180c015260008181610aaf01526117eb0152611cad6000f3fe608060405234801561001057600080fd5b50600436106101cf5760003560e01c806346f68ee91161010457806395d89b41116100a2578063c4d66de811610071578063c4d66de814610412578063d505accf14610425578063dd62ed3e14610438578063ee99205c1461047e57600080fd5b806395d89b41146103c45780639ce110d7146103cc578063a457c2d7146103ec578063a9059cbb146103ff57600080fd5b806373c69eb7116100de57806373c69eb71461032b5780637965d56d146103735780637ecebe00146103865780639358928b146103bc57600080fd5b806346f68ee9146102fd5780635a96ac0a1461031057806370a082311461031857600080fd5b806323b872dd11610171578063313ce5671161014b578063313ce567146102ba5780633644e515146102cf57806339509351146102d757806340a5737f146102ea57600080fd5b806323b872dd146102965780632986c0e5146102a95780632df75cb1146102b157600080fd5b8063089208d8116101ad578063089208d81461024e578063095ea7b31461025857806318160ddd1461027b5780631bd396741461028357600080fd5b80630505c8c9146101d4578063058ecdb41461021857806306fdde0314610239575b600080fd5b60075473ffffffffffffffffffffffffffffffffffffffff165b60405173ffffffffffffffffffffffffffffffffffffffff90911681526020015b60405180910390f35b61022b610226366004611932565b61049e565b60405190815260200161020f565b6102416106ca565b60405161020f9190611954565b61025661075c565b005b61026b6102663660046119eb565b61084c565b604051901515815260200161020f565b60025461022b565b61022b610291366004611a15565b6108c5565b61026b6102a4366004611a2e565b6108d5565b61022b610a73565b61022b600c5481565b60055460405160ff909116815260200161020f565b61022b610a85565b61026b6102e53660046119eb565b610b30565b61026b6102f8366004611a15565b610bdb565b61025661030b366004611a6a565b610c81565b610256610e33565b61022b610326366004611a6a565b610f6f565b61033e610339366004611a15565b610fa3565b604080519788526020880196909652948601939093526060850191909152608084015260a083015260c082015260e00161020f565b61022b610381366004611a15565b610ff5565b61022b610394366004611a6a565b73ffffffffffffffffffffffffffffffffffffffff1660009081526006602052604090205490565b61022b611005565b610241611037565b600a546101ee9073ffffffffffffffffffffffffffffffffffffffff1681565b61026b6103fa3660046119eb565b611046565b61026b61040d3660046119eb565b611162565b61026b610420366004611a6a565b611220565b610256610433366004611a8c565b6113ed565b61022b610446366004611aff565b73ffffffffffffffffffffffffffffffffffffffff9182166000908152600f6020908152604080832093909416825291909152205490565b6009546101ee9073ffffffffffffffffffffffffffffffffffffffff1681565b60095460009073ffffffffffffffffffffffffffffffffffffffff163314610527576040517f08c379a000000000000000000000000000000000000000000000000000000000815260206004820152600c60248201527f6f6e6c79207374616b696e67000000000000000000000000000000000000000060448201526064015b60405180910390fd5b600080610532611005565b9050846000036105d157837f917acfbe39be6509ccf7fecb66a7e42ce2be1083c2d7dd3b9b7491dabddb8da442600254604051610579929190918252602082015260400190565b60405180910390a2837f6012dbce857565c4a40974aa5de8373a761fc429077ef0c8c8611d1e20d63fb260006105ad610a73565b6040805192835260208301919091520160405180910390a2600254925050506106c4565b80156105f75780600254866105e69190611b61565b6105f09190611bcd565b91506105fb565b8491505b816002600082825461060d9190611be1565b90915550506002546fffffffffffffffffffffffffffffffff1015610641576fffffffffffffffffffffffffffffffff6002555b6002546106796a0422ca8b0a00a4250000007fffffffffffffffffffffffffffffffffffffffffffffffffffffffffffffffff611bf9565b6106a3907fffffffffffffffffffffffffffffffffffffffffffffffffffffffffffffffff611c0d565b6106ad9190611bcd565b600d556106bb818686611672565b50600254925050505b92915050565b6060600380546106d990611c24565b80601f016020809104026020016040519081016040528092919081815260200182805461070590611c24565b80156107525780601f1061072757610100808354040283529160200191610752565b820191906000526020600020905b81548152906001019060200180831161073557829003601f168201915b5050505050905090565b60075473ffffffffffffffffffffffffffffffffffffffff1633146107dd576040517f08c379a000000000000000000000000000000000000000000000000000000000815260206004820181905260248201527f4f776e61626c653a2063616c6c6572206973206e6f7420746865206f776e6572604482015260640161051e565b60075460405160009173ffffffffffffffffffffffffffffffffffffffff16907fea8258f2d9ddb679928cf34b78cf645b7feda9acc828e4dd82d014eaae270eba908390a3600780547fffffffffffffffffffffffff0000000000000000000000000000000000000000169055565b336000818152600f6020908152604080832073ffffffffffffffffffffffffffffffffffffffff8716808552925280832085905551919290917f8c5be1e5ebec7d5bd14f71427d1e84f3dd0314c0f7b2291e5b200ac8c7c3b925906108b49086815260200190565b60405180910390a350600192915050565b6000600d54826106c49190611b61565b73ffffffffffffffffffffffffffffffffffffffff83166000908152600f60209081526040808320338452909152812080548391908390610917908490611c0d565b909155505073ffffffffffffffffffffffffffffffffffffffff84166000818152600f6020908152604080832033808552908352928190205490519081529192917f8c5be1e5ebec7d5bd14f71427d1e84f3dd0314c0f7b2291e5b200ac8c7c3b925910160405180910390a3600061098e836108c5565b73ffffffffffffffffffffffffffffffffffffffff86166000908152600e60205260409020549091506109c2908290611c0d565b73ffffffffffffffffffffffffffffffffffffffff8087166000908152600e602052604080822093909355908616815220546109ff908290611be1565b73ffffffffffffffffffffffffffffffffffffffff8086166000818152600e602052604090819020939093559151908716907fddf252ad1be2c89b69c2b068fc378daa952ba7f163c4a11628f55a4df523b3ef90610a609087815260200190565b60405180910390a3506001949350505050565b6000610a80600c54610ff5565b905090565b6000610a8060007f00000000000000000000000000000000000000000000000000000000000000007f00000000000000000000000000000000000000000000000000000000000000007f000000000000000000000000000000000000000000000000000000000000000046604080516020810195909552840192909252606083015260808201523060a082015260c00160405160208183030381529060405280519060200120905090565b336000908152600f6020908152604080832073ffffffffffffffffffffffffffffffffffffffff86168452909152812080548391908390610b72908490611be1565b9091555050336000818152600f6020908152604080832073ffffffffffffffffffffffffffffffffffffffff8816808552908352928190205490519081529192917f8c5be1e5ebec7d5bd14f71427d1e84f3dd0314c0f7b2291e5b200ac8c7c3b92591016108b4565b60075460009073ffffffffffffffffffffffffffffffffffffffff163314610c5f576040517f08c379a000000000000000000000000000000000000000000000000000000000815260206004820181905260248201527f4f776e61626c653a2063616c6c6572206973206e6f7420746865206f776e6572604482015260640161051e565b600c5415610c6c57600080fd5b610c75826108c5565b600c555060015b919050565b60075473ffffffffffffffffffffffffffffffffffffffff163314610d02576040517f08c379a000000000000000000000000000000000000000000000000000000000815260206004820181905260248201527f4f776e61626c653a2063616c6c6572206973206e6f7420746865206f776e6572604482015260640161051e565b73ffffffffffffffffffffffffffffffffffffffff8116610da5576040517f08c379a000000000000000000000000000000000000000000000000000000000815260206004820152602660248201527f4f776e61626c653a206e6577206f776e657220697320746865207a65726f206160448201527f6464726573730000000000000000000000000000000000000000000000000000606482015260840161051e565b60075460405173ffffffffffffffffffffffffffffffffffffffff8084169216907fea8258f2d9ddb679928cf34b78cf645b7feda9acc828e4dd82d014eaae270eba90600090a3600880547fffffffffffffffffffffffff00000000000000000000000000000000000000001673ffffffffffffffffffffffffffffffffffffffff92909216919091179055565b60085473ffffffffffffffffffffffffffffffffffffffff163314610eda576040517f08c379a000000000000000000000000000000000000000000000000000000000815260206004820152602260248201527f4f776e61626c653a206d757374206265206e6577206f776e657220746f20707560448201527f6c6c000000000000000000000000000000000000000000000000000000000000606482015260840161051e565b60085460075460405173ffffffffffffffffffffffffffffffffffffffff92831692909116907faa151555690c956fc3ea32f106bb9f119b5237a061eaa8557cff3e51e3792c8d90600090a3600854600780547fffffffffffffffffffffffff00000000000000000000000000000000000000001673ffffffffffffffffffffffffffffffffffffffff909216919091179055565b600d5473ffffffffffffffffffffffffffffffffffffffff82166000908152600e602052604081205490916106c491611bcd565b600b8181548110610fb357600080fd5b90600052602060002090600702016000915090508060000154908060010154908060020154908060030154908060040154908060050154908060060154905087565b6000600d54826106c49190611bcd565b60095460009061102a9073ffffffffffffffffffffffffffffffffffffffff16610f6f565b600254610a809190611c0d565b6060600480546106d990611c24565b336000908152600f6020908152604080832073ffffffffffffffffffffffffffffffffffffffff861684529091528120548083106110b457336000908152600f6020908152604080832073ffffffffffffffffffffffffffffffffffffffff881684529091528120556110f0565b6110be8382611c0d565b336000908152600f6020908152604080832073ffffffffffffffffffffffffffffffffffffffff891684529091529020555b336000818152600f6020908152604080832073ffffffffffffffffffffffffffffffffffffffff8916808552908352928190205490519081529192917f8c5be1e5ebec7d5bd14f71427d1e84f3dd0314c0f7b2291e5b200ac8c7c3b92591015b60405180910390a35060019392505050565b600080600d54836111739190611b61565b336000908152600e6020526040812080549293508392909190611197908490611c0d565b909155505073ffffffffffffffffffffffffffffffffffffffff84166000908152600e6020526040812080548392906111d1908490611be1565b909155505060405183815273ffffffffffffffffffffffffffffffffffffffff85169033907fddf252ad1be2c89b69c2b068fc378daa952ba7f163c4a11628f55a4df523b3ef90602001611150565b600a5460009073ffffffffffffffffffffffffffffffffffffffff16331461124757600080fd5b73ffffffffffffffffffffffffffffffffffffffff821661126757600080fd5b600980547fffffffffffffffffffffffff00000000000000000000000000000000000000001673ffffffffffffffffffffffffffffffffffffffff84161790556112dc6a0422ca8b0a00a4250000007fffffffffffffffffffffffffffffffffffffffffffffffffffffffffffffffff611bf9565b611306907fffffffffffffffffffffffffffffffffffffffffffffffffffffffffffffffff611c0d565b6009805473ffffffffffffffffffffffffffffffffffffffff9081166000908152600e602052604080822094909455915460025493519116927fddf252ad1be2c89b69c2b068fc378daa952ba7f163c4a11628f55a4df523b3ef9161136d91815260200190565b60405180910390a360405173ffffffffffffffffffffffffffffffffffffffff831681527f817c653428858ed536dc085c5d8273734c517b55de44b55f5c5877a75e3373a19060200160405180910390a15050600a80547fffffffffffffffffffffffff0000000000000000000000000000000000000000169055600190565b83421115611457576040517f08c379a000000000000000000000000000000000000000000000000000000000815260206004820152600e60248201527f455850495245445f5045524d4954000000000000000000000000000000000000604482015260640161051e565b73ffffffffffffffffffffffffffffffffffffffff87811660008181526006602090815260408083205481517f00000000000000000000000000000000000000000000000000000000000000008185015280830195909552948b166060850152608084018a905260a0840185905260c08085018a90528151808603909101815260e090940190528251920191909120906114f0826117c1565b6040805160008082526020820180845284905260ff8a169282019290925260608101889052608081018790529192509060019060a0016020604051602081039080840390855afa158015611548573d6000803e3d6000fd5b50506040517fffffffffffffffffffffffffffffffffffffffffffffffffffffffffffffffe0015191505073ffffffffffffffffffffffffffffffffffffffff8116158015906115c357508a73ffffffffffffffffffffffffffffffffffffffff168173ffffffffffffffffffffffffffffffffffffffff16145b611629576040517f08c379a000000000000000000000000000000000000000000000000000000000815260206004820152601160248201527f494e56414c49445f5349474e4154555245000000000000000000000000000000604482015260640161051e565b611634846001611be1565b73ffffffffffffffffffffffffffffffffffffffff8c166000908152600660205260409020556116658b8b8b6118c4565b5050505050505050505050565b6000808461168885670de0b6b3a7640000611b61565b6116929190611bcd565b9050600b6040518060e001604052808581526020018381526020018781526020016116bb611005565b81526020018681526020016116ce610a73565b81524360209182015282546001808201855560009485529382902083516007909202019081558282015193810193909355604080830151600280860191909155606084015160038601556080840151600486015560a0840151600586015560c090930151600690940193909355905482514281529182015284917f917acfbe39be6509ccf7fecb66a7e42ce2be1083c2d7dd3b9b7491dabddb8da4910160405180910390a2827f6012dbce857565c4a40974aa5de8373a761fc429077ef0c8c8611d1e20d63fb28261179e610a73565b6040805192835260208301919091520160405180910390a2506001949350505050565b600061186c60007f00000000000000000000000000000000000000000000000000000000000000007f00000000000000000000000000000000000000000000000000000000000000007f000000000000000000000000000000000000000000000000000000000000000046604080516020810195909552840192909252606083015260808201523060a082015260c00160405160208183030381529060405280519060200120905090565b6040517f19010000000000000000000000000000000000000000000000000000000000006020820152602281019190915260428101839052606201604051602081830303815290604052805190602001209050919050565b73ffffffffffffffffffffffffffffffffffffffff8381166000818152600f602090815260408083209487168084529482529182902085905590518481527f8c5be1e5ebec7d5bd14f71427d1e84f3dd0314c0f7b2291e5b200ac8c7c3b925910160405180910390a3505050565b6000806040838503121561194557600080fd5b50508035926020909101359150565b600060208083528351808285015260005b8181101561198157858101830151858201604001528201611965565b81811115611993576000604083870101525b50601f017fffffffffffffffffffffffffffffffffffffffffffffffffffffffffffffffe016929092016040019392505050565b803573ffffffffffffffffffffffffffffffffffffffff81168114610c7c57600080fd5b600080604083850312156119fe57600080fd5b611a07836119c7565b946020939093013593505050565b600060208284031215611a2757600080fd5b5035919050565b600080600060608486031215611a4357600080fd5b611a4c846119c7565b9250611a5a602085016119c7565b9150604084013590509250925092565b600060208284031215611a7c57600080fd5b611a85826119c7565b9392505050565b600080600080600080600060e0888a031215611aa757600080fd5b611ab0886119c7565b9650611abe602089016119c7565b95506040880135945060608801359350608088013560ff81168114611ae257600080fd5b9699959850939692959460a0840135945060c09093013592915050565b60008060408385031215611b1257600080fd5b611b1b836119c7565b9150611b29602084016119c7565b90509250929050565b7f4e487b7100000000000000000000000000000000000000000000000000000000600052601160045260246000fd5b6000817fffffffffffffffffffffffffffffffffffffffffffffffffffffffffffffffff0483118215151615611b9957611b99611b32565b500290565b7f4e487b7100000000000000000000000000000000000000000000000000000000600052601260045260246000fd5b600082611bdc57611bdc611b9e565b500490565b60008219821115611bf457611bf4611b32565b500190565b600082611c0857611c08611b9e565b500690565b600082821015611c1f57611c1f611b32565b500390565b600181811c90821680611c3857607f821691505b602082108103611c71577f4e487b7100000000000000000000000000000000000000000000000000000000600052602260045260246000fd5b5091905056fea2646970667358221220e62f62cf743ee664ed511ce6a9dec81ef9a061fb29d0ec532cb5b6bfa37e983964736f6c634300080d0033",
  "devdoc": {
    "kind": "dev",
    "methods": {
      "DOMAIN_SEPARATOR()": {
        "details": "See {IERC20Permit-DOMAIN_SEPARATOR}."
      },
      "decimals()": {
        "details": "Returns the number of decimals used to get its user representation. For example, if `decimals` equals `2`, a balance of `505` tokens should be displayed to a user as `5.05` (`505 / 10 ** 2`). Tokens usually opt for a value of 18, imitating the relationship between Ether and Wei. This is the value {ERC20} uses, unless this function is overridden; NOTE: This information is only used for _display_ purposes: it in no way affects any of the arithmetic of the contract, including {IERC20-balanceOf} and {IERC20-transfer}."
      },
      "decreaseAllowance(address,uint256)": {
        "details": "Atomically decreases the allowance granted to `spender` by the caller. This is an alternative to {approve} that can be used as a mitigation for problems described in {IERC20-approve}. Emits an {Approval} event indicating the updated allowance. Requirements: - `spender` cannot be the zero address. - `spender` must have allowance for the caller of at least `subtractedValue`."
      },
      "increaseAllowance(address,uint256)": {
        "details": "Atomically increases the allowance granted to `spender` by the caller. This is an alternative to {approve} that can be used as a mitigation for problems described in {IERC20-approve}. Emits an {Approval} event indicating the updated allowance. Requirements: - `spender` cannot be the zero address."
      },
      "name()": {
        "details": "Returns the name of the token."
      },
      "nonces(address)": {
        "details": "See {IERC20Permit-nonces}."
      },
      "permit(address,address,uint256,uint256,uint8,bytes32,bytes32)": {
        "details": "See {IERC20Permit-permit}."
      },
      "rebase(uint256,uint256)": {
        "params": {
          "profit_": "uint256"
        },
        "returns": {
          "_0": "uint256"
        }
      },
      "symbol()": {
        "details": "Returns the symbol of the token, usually a shorter version of the name."
      },
      "totalSupply()": {
        "details": "See {IERC20-totalSupply}."
      }
    },
    "version": 1
  },
  "userdoc": {
    "kind": "user",
    "methods": {
      "rebase(uint256,uint256)": {
        "notice": "increases sREQT supply to increase staking balances relative to profit_"
      }
    },
    "version": 1
  },
  "storageLayout": {
    "storage": [
      {
        "astId": 9307,
        "contract": "contracts/sRequiemERC20.sol:sRequiem",
        "label": "_balances",
        "offset": 0,
        "slot": "0",
        "type": "t_mapping(t_address,t_uint256)"
      },
      {
        "astId": 9313,
        "contract": "contracts/sRequiemERC20.sol:sRequiem",
        "label": "_allowances",
        "offset": 0,
        "slot": "1",
        "type": "t_mapping(t_address,t_mapping(t_address,t_uint256))"
      },
      {
        "astId": 9315,
        "contract": "contracts/sRequiemERC20.sol:sRequiem",
        "label": "_totalSupply",
        "offset": 0,
        "slot": "2",
        "type": "t_uint256"
      },
      {
        "astId": 9317,
        "contract": "contracts/sRequiemERC20.sol:sRequiem",
        "label": "_name",
        "offset": 0,
        "slot": "3",
        "type": "t_string_storage"
      },
      {
        "astId": 9319,
        "contract": "contracts/sRequiemERC20.sol:sRequiem",
        "label": "_symbol",
        "offset": 0,
        "slot": "4",
        "type": "t_string_storage"
      },
      {
        "astId": 9321,
        "contract": "contracts/sRequiemERC20.sol:sRequiem",
        "label": "_decimals",
        "offset": 0,
        "slot": "5",
        "type": "t_uint8"
      },
      {
        "astId": 9925,
        "contract": "contracts/sRequiemERC20.sol:sRequiem",
        "label": "_nonces",
        "offset": 0,
        "slot": "6",
        "type": "t_mapping(t_address,t_uint256)"
      },
      {
        "astId": 10113,
        "contract": "contracts/sRequiemERC20.sol:sRequiem",
        "label": "_owner",
        "offset": 0,
        "slot": "7",
        "type": "t_address"
      },
      {
        "astId": 10115,
        "contract": "contracts/sRequiemERC20.sol:sRequiem",
        "label": "_newOwner",
        "offset": 0,
        "slot": "8",
        "type": "t_address"
      },
      {
        "astId": 15708,
        "contract": "contracts/sRequiemERC20.sol:sRequiem",
        "label": "stakingContract",
        "offset": 0,
        "slot": "9",
        "type": "t_address"
      },
      {
        "astId": 15710,
        "contract": "contracts/sRequiemERC20.sol:sRequiem",
        "label": "initializer",
        "offset": 0,
        "slot": "10",
        "type": "t_address"
      },
      {
        "astId": 15749,
        "contract": "contracts/sRequiemERC20.sol:sRequiem",
        "label": "rebases",
        "offset": 0,
        "slot": "11",
        "type": "t_array(t_struct(Rebase)15745_storage)dyn_storage"
      },
      {
        "astId": 15751,
        "contract": "contracts/sRequiemERC20.sol:sRequiem",
        "label": "INDEX",
        "offset": 0,
        "slot": "12",
        "type": "t_uint256"
      },
      {
        "astId": 15782,
        "contract": "contracts/sRequiemERC20.sol:sRequiem",
        "label": "_gonsPerFragment",
        "offset": 0,
        "slot": "13",
        "type": "t_uint256"
      },
      {
        "astId": 15786,
        "contract": "contracts/sRequiemERC20.sol:sRequiem",
        "label": "_gonBalances",
        "offset": 0,
        "slot": "14",
        "type": "t_mapping(t_address,t_uint256)"
      },
      {
        "astId": 15792,
        "contract": "contracts/sRequiemERC20.sol:sRequiem",
        "label": "_allowedValue",
        "offset": 0,
        "slot": "15",
        "type": "t_mapping(t_address,t_mapping(t_address,t_uint256))"
      }
    ],
    "types": {
      "t_address": {
        "encoding": "inplace",
        "label": "address",
        "numberOfBytes": "20"
      },
      "t_array(t_struct(Rebase)15745_storage)dyn_storage": {
        "base": "t_struct(Rebase)15745_storage",
        "encoding": "dynamic_array",
        "label": "struct sRequiem.Rebase[]",
        "numberOfBytes": "32"
      },
      "t_mapping(t_address,t_mapping(t_address,t_uint256))": {
        "encoding": "mapping",
        "key": "t_address",
        "label": "mapping(address => mapping(address => uint256))",
        "numberOfBytes": "32",
        "value": "t_mapping(t_address,t_uint256)"
      },
      "t_mapping(t_address,t_uint256)": {
        "encoding": "mapping",
        "key": "t_address",
        "label": "mapping(address => uint256)",
        "numberOfBytes": "32",
        "value": "t_uint256"
      },
      "t_string_storage": {
        "encoding": "bytes",
        "label": "string",
        "numberOfBytes": "32"
      },
      "t_struct(Rebase)15745_storage": {
        "encoding": "inplace",
        "label": "struct sRequiem.Rebase",
        "members": [
          {
            "astId": 15732,
            "contract": "contracts/sRequiemERC20.sol:sRequiem",
            "label": "epoch",
            "offset": 0,
            "slot": "0",
            "type": "t_uint256"
          },
          {
            "astId": 15734,
            "contract": "contracts/sRequiemERC20.sol:sRequiem",
            "label": "rebase",
            "offset": 0,
            "slot": "1",
            "type": "t_uint256"
          },
          {
            "astId": 15736,
            "contract": "contracts/sRequiemERC20.sol:sRequiem",
            "label": "totalStakedBefore",
            "offset": 0,
            "slot": "2",
            "type": "t_uint256"
          },
          {
            "astId": 15738,
            "contract": "contracts/sRequiemERC20.sol:sRequiem",
            "label": "totalStakedAfter",
            "offset": 0,
            "slot": "3",
            "type": "t_uint256"
          },
          {
            "astId": 15740,
            "contract": "contracts/sRequiemERC20.sol:sRequiem",
            "label": "amountRebased",
            "offset": 0,
            "slot": "4",
            "type": "t_uint256"
          },
          {
            "astId": 15742,
            "contract": "contracts/sRequiemERC20.sol:sRequiem",
            "label": "index",
            "offset": 0,
            "slot": "5",
            "type": "t_uint256"
          },
          {
            "astId": 15744,
            "contract": "contracts/sRequiemERC20.sol:sRequiem",
            "label": "blockNumberOccured",
            "offset": 0,
            "slot": "6",
            "type": "t_uint256"
          }
        ],
        "numberOfBytes": "224"
      },
      "t_uint256": {
        "encoding": "inplace",
        "label": "uint256",
        "numberOfBytes": "32"
      },
      "t_uint8": {
        "encoding": "inplace",
        "label": "uint8",
        "numberOfBytes": "1"
      }
    }
  }
}