{
  "address": "0xCE2DF4e75D53093b32fc8789A474f8Ae16f3Ca09",
  "abi": [
    {
      "inputs": [
        {
          "internalType": "contract IAuthority",
          "name": "_authority",
          "type": "address"
        },
        {
          "internalType": "contract IERC20",
          "name": "_req",
          "type": "address"
        },
        {
          "internalType": "contract IgREQ",
          "name": "_greq",
          "type": "address"
        },
        {
          "internalType": "contract IStaking",
          "name": "_staking",
          "type": "address"
        },
        {
          "internalType": "contract ITreasury",
          "name": "_treasury",
          "type": "address"
        }
      ],
      "stateMutability": "nonpayable",
      "type": "constructor"
    },
    {
      "anonymous": false,
      "inputs": [
        {
          "indexed": true,
          "internalType": "contract IAuthority",
          "name": "authority",
          "type": "address"
        }
      ],
      "name": "AuthorityUpdated",
      "type": "event"
    },
    {
      "anonymous": false,
      "inputs": [
        {
          "indexed": true,
          "internalType": "uint256",
          "name": "id",
          "type": "uint256"
        },
        {
          "indexed": false,
          "internalType": "uint256",
          "name": "amount",
          "type": "uint256"
        },
        {
          "indexed": false,
          "internalType": "uint256",
          "name": "price",
          "type": "uint256"
        }
      ],
      "name": "Bond",
      "type": "event"
    },
    {
      "anonymous": false,
      "inputs": [
        {
          "indexed": true,
          "internalType": "uint256",
          "name": "id",
          "type": "uint256"
        }
      ],
      "name": "CloseMarket",
      "type": "event"
    },
    {
      "anonymous": false,
      "inputs": [
        {
          "indexed": true,
          "internalType": "uint256",
          "name": "id",
          "type": "uint256"
        },
        {
          "indexed": true,
          "internalType": "address",
          "name": "baseToken",
          "type": "address"
        },
        {
          "indexed": true,
          "internalType": "address",
          "name": "quoteToken",
          "type": "address"
        },
        {
          "indexed": false,
          "internalType": "uint256",
          "name": "initialPrice",
          "type": "uint256"
        }
      ],
      "name": "CreateMarket",
      "type": "event"
    },
    {
      "anonymous": false,
      "inputs": [
        {
          "indexed": true,
          "internalType": "uint256",
          "name": "id",
          "type": "uint256"
        },
        {
          "indexed": false,
          "internalType": "uint256",
          "name": "oldControlVariable",
          "type": "uint256"
        },
        {
          "indexed": false,
          "internalType": "uint256",
          "name": "newControlVariable",
          "type": "uint256"
        }
      ],
      "name": "Tuned",
      "type": "event"
    },
    {
      "inputs": [
        {
          "internalType": "uint256",
          "name": "",
          "type": "uint256"
        }
      ],
      "name": "adjustments",
      "outputs": [
        {
          "internalType": "uint256",
          "name": "change",
          "type": "uint256"
        },
        {
          "internalType": "uint48",
          "name": "lastAdjustment",
          "type": "uint48"
        },
        {
          "internalType": "uint48",
          "name": "timeToAdjusted",
          "type": "uint48"
        },
        {
          "internalType": "bool",
          "name": "active",
          "type": "bool"
        }
      ],
      "stateMutability": "view",
      "type": "function"
    },
    {
      "inputs": [],
      "name": "authority",
      "outputs": [
        {
          "internalType": "contract IAuthority",
          "name": "",
          "type": "address"
        }
      ],
      "stateMutability": "view",
      "type": "function"
    },
    {
      "inputs": [
        {
          "internalType": "uint256",
          "name": "_id",
          "type": "uint256"
        }
      ],
      "name": "close",
      "outputs": [],
      "stateMutability": "nonpayable",
      "type": "function"
    },
    {
      "inputs": [
        {
          "internalType": "contract IERC20",
          "name": "_quoteToken",
          "type": "address"
        },
        {
          "internalType": "uint256[3]",
          "name": "_market",
          "type": "uint256[3]"
        },
        {
          "internalType": "bool[2]",
          "name": "_booleans",
          "type": "bool[2]"
        },
        {
          "internalType": "uint256[2]",
          "name": "_terms",
          "type": "uint256[2]"
        },
        {
          "internalType": "uint32[2]",
          "name": "_intervals",
          "type": "uint32[2]"
        }
      ],
      "name": "create",
      "outputs": [
        {
          "internalType": "uint256",
          "name": "id_",
          "type": "uint256"
        }
      ],
      "stateMutability": "nonpayable",
      "type": "function"
    },
    {
      "inputs": [
        {
          "internalType": "uint256",
          "name": "_id",
          "type": "uint256"
        }
      ],
      "name": "currentControlVariable",
      "outputs": [
        {
          "internalType": "uint256",
          "name": "",
          "type": "uint256"
        }
      ],
      "stateMutability": "view",
      "type": "function"
    },
    {
      "inputs": [
        {
          "internalType": "uint256",
          "name": "_id",
          "type": "uint256"
        }
      ],
      "name": "currentDebt",
      "outputs": [
        {
          "internalType": "uint256",
          "name": "",
          "type": "uint256"
        }
      ],
      "stateMutability": "view",
      "type": "function"
    },
    {
      "inputs": [],
      "name": "daoReward",
      "outputs": [
        {
          "internalType": "uint256",
          "name": "",
          "type": "uint256"
        }
      ],
      "stateMutability": "view",
      "type": "function"
    },
    {
      "inputs": [
        {
          "internalType": "uint256",
          "name": "_id",
          "type": "uint256"
        }
      ],
      "name": "debtDecay",
      "outputs": [
        {
          "internalType": "uint256",
          "name": "",
          "type": "uint256"
        }
      ],
      "stateMutability": "view",
      "type": "function"
    },
    {
      "inputs": [
        {
          "internalType": "uint256",
          "name": "_id",
          "type": "uint256"
        }
      ],
      "name": "debtRatio",
      "outputs": [
        {
          "internalType": "uint256",
          "name": "",
          "type": "uint256"
        }
      ],
      "stateMutability": "view",
      "type": "function"
    },
    {
      "inputs": [
        {
          "internalType": "uint256",
          "name": "_id",
          "type": "uint256"
        },
        {
          "internalType": "uint256",
          "name": "_amount",
          "type": "uint256"
        },
        {
          "internalType": "uint256",
          "name": "_maxPrice",
          "type": "uint256"
        },
        {
          "internalType": "address",
          "name": "_user",
          "type": "address"
        },
        {
          "internalType": "address",
          "name": "_referral",
          "type": "address"
        }
      ],
      "name": "deposit",
      "outputs": [
        {
          "internalType": "uint256",
          "name": "payout_",
          "type": "uint256"
        },
        {
          "internalType": "uint256",
          "name": "expiry_",
          "type": "uint256"
        },
        {
          "internalType": "uint256",
          "name": "index_",
          "type": "uint256"
        }
      ],
      "stateMutability": "nonpayable",
      "type": "function"
    },
    {
      "inputs": [],
      "name": "getReward",
      "outputs": [],
      "stateMutability": "nonpayable",
      "type": "function"
    },
    {
      "inputs": [
        {
          "internalType": "address",
          "name": "_user",
          "type": "address"
        }
      ],
      "name": "indexesFor",
      "outputs": [
        {
          "internalType": "uint256[]",
          "name": "",
          "type": "uint256[]"
        }
      ],
      "stateMutability": "view",
      "type": "function"
    },
    {
      "inputs": [
        {
          "internalType": "uint256",
          "name": "_id",
          "type": "uint256"
        }
      ],
      "name": "isLive",
      "outputs": [
        {
          "internalType": "bool",
          "name": "",
          "type": "bool"
        }
      ],
      "stateMutability": "view",
      "type": "function"
    },
    {
      "inputs": [],
      "name": "liveMarkets",
      "outputs": [
        {
          "internalType": "uint256[]",
          "name": "",
          "type": "uint256[]"
        }
      ],
      "stateMutability": "view",
      "type": "function"
    },
    {
      "inputs": [
        {
          "internalType": "address",
          "name": "_token",
          "type": "address"
        }
      ],
      "name": "liveMarketsFor",
      "outputs": [
        {
          "internalType": "uint256[]",
          "name": "",
          "type": "uint256[]"
        }
      ],
      "stateMutability": "view",
      "type": "function"
    },
    {
      "inputs": [
        {
          "internalType": "uint256",
          "name": "_id",
          "type": "uint256"
        }
      ],
      "name": "marketPrice",
      "outputs": [
        {
          "internalType": "uint256",
          "name": "",
          "type": "uint256"
        }
      ],
      "stateMutability": "view",
      "type": "function"
    },
    {
      "inputs": [
        {
          "internalType": "uint256",
          "name": "",
          "type": "uint256"
        }
      ],
      "name": "markets",
      "outputs": [
        {
          "internalType": "uint256",
          "name": "capacity",
          "type": "uint256"
        },
        {
          "internalType": "contract IERC20",
          "name": "quoteToken",
          "type": "address"
        },
        {
          "internalType": "bool",
          "name": "capacityInQuote",
          "type": "bool"
        },
        {
          "internalType": "uint256",
          "name": "totalDebt",
          "type": "uint256"
        },
        {
          "internalType": "uint256",
          "name": "maxPayout",
          "type": "uint256"
        },
        {
          "internalType": "uint256",
          "name": "sold",
          "type": "uint256"
        },
        {
          "internalType": "uint256",
          "name": "purchased",
          "type": "uint256"
        }
      ],
      "stateMutability": "view",
      "type": "function"
    },
    {
      "inputs": [
        {
          "internalType": "address",
          "name": "",
          "type": "address"
        },
        {
          "internalType": "uint256",
          "name": "",
          "type": "uint256"
        }
      ],
      "name": "marketsForQuote",
      "outputs": [
        {
          "internalType": "uint256",
          "name": "",
          "type": "uint256"
        }
      ],
      "stateMutability": "view",
      "type": "function"
    },
    {
      "inputs": [
        {
          "internalType": "uint256",
          "name": "",
          "type": "uint256"
        }
      ],
      "name": "metadata",
      "outputs": [
        {
          "internalType": "uint48",
          "name": "lastTune",
          "type": "uint48"
        },
        {
          "internalType": "uint48",
          "name": "lastDecay",
          "type": "uint48"
        },
        {
          "internalType": "uint48",
          "name": "length",
          "type": "uint48"
        },
        {
          "internalType": "uint48",
          "name": "depositInterval",
          "type": "uint48"
        },
        {
          "internalType": "uint48",
          "name": "tuneInterval",
          "type": "uint48"
        },
        {
          "internalType": "uint8",
          "name": "quoteDecimals",
          "type": "uint8"
        }
      ],
      "stateMutability": "view",
      "type": "function"
    },
    {
      "inputs": [
        {
          "internalType": "address",
          "name": "",
          "type": "address"
        },
        {
          "internalType": "uint256",
          "name": "",
          "type": "uint256"
        }
      ],
      "name": "notes",
      "outputs": [
        {
          "internalType": "uint256",
          "name": "payout",
          "type": "uint256"
        },
        {
          "internalType": "uint48",
          "name": "created",
          "type": "uint48"
        },
        {
          "internalType": "uint48",
          "name": "matured",
          "type": "uint48"
        },
        {
          "internalType": "uint48",
          "name": "redeemed",
          "type": "uint48"
        },
        {
          "internalType": "uint48",
          "name": "marketID",
          "type": "uint48"
        }
      ],
      "stateMutability": "view",
      "type": "function"
    },
    {
      "inputs": [
        {
          "internalType": "uint256",
          "name": "_amount",
          "type": "uint256"
        },
        {
          "internalType": "uint256",
          "name": "_id",
          "type": "uint256"
        }
      ],
      "name": "payoutFor",
      "outputs": [
        {
          "internalType": "uint256",
          "name": "",
          "type": "uint256"
        }
      ],
      "stateMutability": "view",
      "type": "function"
    },
    {
      "inputs": [
        {
          "internalType": "address",
          "name": "_user",
          "type": "address"
        },
        {
          "internalType": "uint256",
          "name": "_index",
          "type": "uint256"
        }
      ],
      "name": "pendingFor",
      "outputs": [
        {
          "internalType": "uint256",
          "name": "payout_",
          "type": "uint256"
        },
        {
          "internalType": "bool",
          "name": "matured_",
          "type": "bool"
        }
      ],
      "stateMutability": "view",
      "type": "function"
    },
    {
      "inputs": [
        {
          "internalType": "address",
          "name": "_from",
          "type": "address"
        },
        {
          "internalType": "uint256",
          "name": "_index",
          "type": "uint256"
        }
      ],
      "name": "pullNote",
      "outputs": [
        {
          "internalType": "uint256",
          "name": "newIndex_",
          "type": "uint256"
        }
      ],
      "stateMutability": "nonpayable",
      "type": "function"
    },
    {
      "inputs": [
        {
          "internalType": "address",
          "name": "_to",
          "type": "address"
        },
        {
          "internalType": "uint256",
          "name": "_index",
          "type": "uint256"
        }
      ],
      "name": "pushNote",
      "outputs": [],
      "stateMutability": "nonpayable",
      "type": "function"
    },
    {
      "inputs": [
        {
          "internalType": "address",
          "name": "_user",
          "type": "address"
        },
        {
          "internalType": "uint256[]",
          "name": "_indexes",
          "type": "uint256[]"
        },
        {
          "internalType": "bool",
          "name": "_sendgREQ",
          "type": "bool"
        }
      ],
      "name": "redeem",
      "outputs": [
        {
          "internalType": "uint256",
          "name": "payout_",
          "type": "uint256"
        }
      ],
      "stateMutability": "nonpayable",
      "type": "function"
    },
    {
      "inputs": [
        {
          "internalType": "address",
          "name": "_user",
          "type": "address"
        },
        {
          "internalType": "bool",
          "name": "_sendgREQ",
          "type": "bool"
        }
      ],
      "name": "redeemAll",
      "outputs": [
        {
          "internalType": "uint256",
          "name": "",
          "type": "uint256"
        }
      ],
      "stateMutability": "nonpayable",
      "type": "function"
    },
    {
      "inputs": [],
      "name": "refReward",
      "outputs": [
        {
          "internalType": "uint256",
          "name": "",
          "type": "uint256"
        }
      ],
      "stateMutability": "view",
      "type": "function"
    },
    {
      "inputs": [
        {
          "internalType": "address",
          "name": "",
          "type": "address"
        }
      ],
      "name": "rewards",
      "outputs": [
        {
          "internalType": "uint256",
          "name": "",
          "type": "uint256"
        }
      ],
      "stateMutability": "view",
      "type": "function"
    },
    {
      "inputs": [
        {
          "internalType": "contract IAuthority",
          "name": "_newAuthority",
          "type": "address"
        }
      ],
      "name": "setAuthority",
      "outputs": [],
      "stateMutability": "nonpayable",
      "type": "function"
    },
    {
      "inputs": [
        {
          "internalType": "uint256",
          "name": "_toFrontEnd",
          "type": "uint256"
        },
        {
          "internalType": "uint256",
          "name": "_toDAO",
          "type": "uint256"
        }
      ],
      "name": "setRewards",
      "outputs": [],
      "stateMutability": "nonpayable",
      "type": "function"
    },
    {
      "inputs": [
        {
          "internalType": "uint256",
          "name": "",
          "type": "uint256"
        }
      ],
      "name": "terms",
      "outputs": [
        {
          "internalType": "bool",
          "name": "fixedTerm",
          "type": "bool"
        },
        {
          "internalType": "uint256",
          "name": "controlVariable",
          "type": "uint256"
        },
        {
          "internalType": "uint48",
          "name": "vesting",
          "type": "uint48"
        },
        {
          "internalType": "uint48",
          "name": "conclusion",
          "type": "uint48"
        },
        {
          "internalType": "uint256",
          "name": "maxDebt",
          "type": "uint256"
        }
      ],
      "stateMutability": "view",
      "type": "function"
    },
    {
      "inputs": [],
      "name": "updateTreasury",
      "outputs": [],
      "stateMutability": "nonpayable",
      "type": "function"
    },
    {
      "inputs": [
        {
          "internalType": "address",
          "name": "_operator",
          "type": "address"
        }
      ],
      "name": "whitelist",
      "outputs": [],
      "stateMutability": "nonpayable",
      "type": "function"
    },
    {
      "inputs": [
        {
          "internalType": "address",
          "name": "",
          "type": "address"
        }
      ],
      "name": "whitelisted",
      "outputs": [
        {
          "internalType": "bool",
          "name": "",
          "type": "bool"
        }
      ],
      "stateMutability": "view",
      "type": "function"
    }
  ],
  "transactionHash": "0xf73b4a7e34979e24096ee81b4146cc2778a5ccc1ef327bfefa06ac1be24dfafd",
  "args": [
    "0x94490C52990A38982851C4AD712390B858f63062",
    "0x5d8894Ff5e16f5Fd749369A370A87B3Fd6d29204",
    "0x147F7feF8C1c46B7Fc9eE790eE95A041F255F022",
    "0x8B047E942DA91c98221E2Ca9aa81864966E208A7",
    "0x1b18DDBe9cEE4f0Be71E087304b59A28Cfe4c2cC"
  ],
  "solcInputHash": "855fdb0539972633ac9f78d4ebfab091",
  "bytecode": "0x610120604052600c60e08190526b15539055551213d49256915160a21b6101009081526200003191600091906200017e565b503480156200003f57600080fd5b50604051620043ad380380620043ad83398101604081905262000062916200023d565b600180546001600160a01b0319166001600160a01b038716908117909155604051869186918691869186918691869183917f2f658b440c35314f52658ea8a740e05b284cdc84dc9ae01e891f21b8933e7cad90600090a2506001600160a01b0390811660805293841660a0525090821660c052600880546001600160a01b03191691831691909117905560405163095ea7b360e01b815285821660048201527502ac3a4edbbfb8014e3ba83411e915e80000000000006024820152908716925063095ea7b391506044016020604051808303816000875af11580156200014c573d6000803e3d6000fd5b505050506040513d601f19601f82011682018060405250810190620001729190620002bd565b50505050505062000325565b8280546200018c90620002e8565b90600052602060002090601f016020900481019282620001b05760008555620001fb565b82601f10620001cb57805160ff1916838001178555620001fb565b82800160010185558215620001fb579182015b82811115620001fb578251825591602001919060010190620001de565b50620002099291506200020d565b5090565b5b808211156200020957600081556001016200020e565b6001600160a01b03811681146200023a57600080fd5b50565b600080600080600060a086880312156200025657600080fd5b8551620002638162000224565b6020870151909550620002768162000224565b6040870151909450620002898162000224565b60608701519093506200029c8162000224565b6080870151909250620002af8162000224565b809150509295509295909350565b600060208284031215620002d057600080fd5b81518015158114620002e157600080fd5b9392505050565b600181811c90821680620002fd57607f821691505b602082108114156200031f57634e487b7160e01b600052602260045260246000fd5b50919050565b60805160a05160c05161402762000386600039600081816124060152612dec01526000818161236d0152612c1401526000818161092901528181610e4201528181610fd20152818161134201528181611688015261308201526140276000f3fe608060405234801561001057600080fd5b50600436106102065760003560e01c8063abbf4b171161011a578063c9b67af5116100ad578063e0b117ff1161007c578063e0b117ff1461057b578063e3684e39146105c3578063e481b2651461061a578063f1b7dc781461062d578063f3191a461461064057600080fd5b8063c9b67af51461052a578063d62fbdd314610532578063d6db4df814610545578063d936547e1461055857600080fd5b8063bf7e214f116100e9578063bf7e214f1461047c578063c0680e20146104a7578063c0aa0e8a146104ba578063c3e0fb1c1461050257600080fd5b8063abbf4b1714610388578063b1283e771461039b578063bc3b2b12146103f1578063bcb296671461046957600080fd5b806346aed74e1161019d5780637a9e5e4b1161016c5780637a9e5e4b146103195780637c770aae1461032c5780639b19251a1461035a5780639c7697871461036d578063a42206101461037557600080fd5b806346aed74e146102c057806364914439146102d3578063654e51e7146102f35780636a6c575d1461030657600080fd5b806321a7d29b116101d957806321a7d29b1461026f57806327507458146102825780633adec5a7146102a55780633d18b912146102b857600080fd5b80630700037d1461020b5780630a9d85eb1461023e5780630aebeb4e146102515780631885f58014610266575b600080fd5b61022b610219366004613803565b60046020526000908152604090205481565b6040519081526020015b60405180910390f35b61022b61024c366004613820565b610649565b61026461025f366004613820565b610690565b005b61022b60025481565b61022b61027d3660046139c3565b6107df565b610295610290366004613820565b610eca565b6040519015158152602001610235565b61022b6102b3366004613820565b610f3b565b610264610f97565b61022b6102ce366004613a84565b611043565b6102e66102e1366004613803565b611058565b6040516102359190613abd565b610264610301366004613b01565b6111e7565b61022b610314366004613b01565b61129e565b610264610327366004613803565b6113fe565b61033f61033a366004613b23565b6114f4565b60408051938452602084019290925290820152606001610235565b610264610368366004613803565b611905565b6102646119da565b61022b610383366004613b79565b611c60565b61022b610396366004613820565b611ec4565b6103ae6103a9366004613820565b611f96565b604080519788526001600160a01b039096166020880152931515948601949094526060850191909152608084015260a083019190915260c082015260e001610235565b6104386103ff366004613820565b600c602052600090815260409020805460019091015465ffffffffffff80821691600160301b810490911690600160601b900460ff1684565b604051610235949392919093845265ffffffffffff9283166020850152911660408301521515606082015260800190565b61022b610477366004613820565b611ff3565b60015461048f906001600160a01b031681565b6040516001600160a01b039091168152602001610235565b61022b6104b5366004613b79565b61202d565b6104cd6104c8366004613820565b61205e565b604080519515158652602086019490945265ffffffffffff92831693850193909352166060830152608082015260a001610235565b610515610510366004613b79565b6120b0565b60408051928352901515602083015201610235565b6102e661217b565b61022b610540366004613ba5565b612264565b610264610553366004613b79565b61247d565b610295610566366004613803565b60056020526000908152604090205460ff1681565b61058e610589366004613b79565b61253f565b6040805195865265ffffffffffff9485166020870152928416928501929092528216606084015216608082015260a001610235565b6105d66105d1366004613820565b6125a2565b6040805165ffffffffffff97881681529587166020870152938616938501939093529084166060840152909216608082015260ff90911660a082015260c001610235565b6102e6610628366004613803565b612600565b61022b61063b366004613820565b612825565b61022b60035481565b600080610655836128d0565b5050905080600a848154811061066d5761066d613c70565b9060005260206000209060040201600101546106899190613c9c565b9392505050565b600160009054906101000a90046001600160a01b03166001600160a01b0316630505c8c96040518163ffffffff1660e01b8152600401602060405180830381865afa1580156106e3573d6000803e3d6000fd5b505050506040513d601f19601f820116820180604052508101906107079190613cb3565b6001600160a01b0316336001600160a01b0316146000906107445760405162461bcd60e51b815260040161073b9190613cd0565b60405180910390fd5b5042600a828154811061075957610759613c70565b906000526020600020906004020160020160066101000a81548165ffffffffffff021916908365ffffffffffff1602179055506000600982815481106107a1576107a1613c70565b6000918252602082206006909102019190915560405182917f8401d05adbea6548a6999cc1540766e6d2ff919292142862893d0e62ec79fbe591a250565b60015460408051630505c8c960e01b815290516000926001600160a01b031691630505c8c99160048083019260209291908290030181865afa158015610829573d6000803e3d6000fd5b505050506040513d601f19601f8201168201806040525081019061084d9190613cb3565b6001600160a01b0316336001600160a01b0316146000906108815760405162461bcd60e51b815260040161073b9190613cd0565b506020830151600090610895904290613c9c565b90506000876001600160a01b031663313ce5676040518163ffffffff1660e01b8152600401602060405180830381865afa1580156108d7573d6000803e3d6000fd5b505050506040513d601f19601f820116820180604052508101906108fb9190613d78565b60ff1690506000868160200201516109145787516109df565b61091f82600a613e7f565b88600160200201517f00000000000000000000000000000000000000000000000000000000000000006001600160a01b031663313ce5676040518163ffffffff1660e01b8152600401602060405180830381865afa158015610985573d6000803e3d6000fd5b505050506040513d601f19601f820116820180604052508101906109a99190613d78565b6109b4906002613e8b565b6109bf90600a613eac565b8a516109cb9190613ebb565b6109d59190613eda565b6109df9190613eda565b855190915060009084906109f99063ffffffff1684613ebb565b610a039190613eda565b90506000620186a08a60026020020151610a1d9085613ebb565b610a279190613eda565b610a319084613efc565b9050600083600860009054906101000a90046001600160a01b03166001600160a01b031663860f50486040518163ffffffff1660e01b8152600401602060405180830381865afa158015610a89573d6000803e3d6000fd5b505050506040513d601f19601f82011682018060405250810190610aad9190613f14565b60208d0151610abc9190613ebb565b610ac69190613eda565b600980546040805160e0810190915290995091925090808d6000602002015181526020018e6001600160a01b031681526020018c600060028110610b0c57610b0c613c70565b60209081029190910151151582528181018890526040808301889052600060608085018290526080948501829052865460018082018955978352918490208651600690930201918255858401518288018054888601511515600160a01b026001600160a81b03199091166001600160a01b039093169290921791909117905585810151600283015593850151600382015560a080860151600483015560c090950151600590910155805193840181528e820151151584529083018590528c5165ffffffffffff1690830152600a92908201908c906020908102919091015165ffffffffffff908116835291810186905283546001818101865560009586528286208551600490930201805492151560ff1990931692909217825584830151908201556040808501516002830180546060808901518816600160301b026001600160601b031990921693881693909317179055608090950151600390920191909155805160c08101825242841680825292810192909252918a1691810191909152600b9290918201908b906020908102919091015163ffffffff168252018a6001602002015163ffffffff1665ffffffffffff1681526020018760ff168152509080600181540180825580915050600190039060005260206000200160009091909190915060008201518160000160006101000a81548165ffffffffffff021916908365ffffffffffff16021790555060208201518160000160066101000a81548165ffffffffffff021916908365ffffffffffff160217905550604082015181600001600c6101000a81548165ffffffffffff021916908365ffffffffffff16021790555060608201518160000160126101000a81548165ffffffffffff021916908365ffffffffffff16021790555060808201518160000160186101000a81548165ffffffffffff021916908365ffffffffffff16021790555060a082015181600001601e6101000a81548160ff021916908360ff1602179055505050600d60008d6001600160a01b03166001600160a01b031681526020019081526020016000208790806001815401808255809150506001900390600052602060002001600090919091909150558b6001600160a01b03167f00000000000000000000000000000000000000000000000000000000000000006001600160a01b0316887f2f6ff727bd580b1d1b8332e28aa93ed4ec9d8b08d6e30d6b4c9f7aa63ca17f638e600160038110610e9f57610e9f613c70565b6020020151604051610eb391815260200190565b60405180910390a450505050505095945050505050565b600060098281548110610edf57610edf613c70565b906000526020600020906006020160000154600014158015610f35575042600a8381548110610f1057610f10613c70565b6000918252602090912060049091020160020154600160301b900465ffffffffffff16115b92915050565b6000600b8281548110610f5057610f50613c70565b600091825260209091200154610f7190600160f01b900460ff16600a613eac565b610f7a83612825565b610f8384610649565b610f8d9190613ebb565b610f359190613eda565b33600081815260046020819052604080832080549390555163a9059cbb60e01b81529081019290925260248201819052906001600160a01b037f0000000000000000000000000000000000000000000000000000000000000000169063a9059cbb906044016020604051808303816000875af115801561101b573d6000803e3d6000fd5b505050506040513d601f19601f8201168201806040525081019061103f9190613f2d565b5050565b60006106898361105285612600565b84612264565b6001600160a01b0381166000908152600d602090815260408083208054825181850281018501909352808352606094938301828280156110b757602002820191906000526020600020905b8154815260200190600101908083116110a3575b50505050509050600080600090505b8251811015611116576110f18382815181106110e4576110e4613c70565b6020026020010151610eca565b15611104578161110081613f4a565b9250505b8061110e81613f4a565b9150506110c6565b5060008167ffffffffffffffff81111561113257611132613839565b60405190808252806020026020018201604052801561115b578160200160208202803683370190505b5090506000805b84518110156111dc576111808582815181106110e4576110e4613c70565b156111ca5784818151811061119757611197613c70565b60200260200101518383815181106111b1576111b1613c70565b6020908102919091010152816111c681613f4a565b9250505b806111d481613f4a565b915050611162565b509095945050505050565b600160009054906101000a90046001600160a01b03166001600160a01b0316630c340a246040518163ffffffff1660e01b8152600401602060405180830381865afa15801561123a573d6000803e3d6000fd5b505050506040513d601f19601f8201168201806040525081019061125e9190613cb3565b6001600160a01b0316336001600160a01b0316146000906112925760405162461bcd60e51b815260040161073b9190613cd0565b50600391909155600255565b600080600b83815481106112b4576112b4613c70565b60009182526020918290206040805160c081018252919092015465ffffffffffff8082168352600160301b8204811694830194909452600160601b8104841692820192909252600160901b820483166060820152600160c01b8204909216608083015260ff600160f01b9091041660a0820181905290915061133790600a613eac565b61134084610f3b565b7f00000000000000000000000000000000000000000000000000000000000000006001600160a01b031663313ce5676040518163ffffffff1660e01b8152600401602060405180830381865afa15801561139e573d6000803e3d6000fd5b505050506040513d601f19601f820116820180604052508101906113c29190613d78565b6113cd906002613e8b565b6113d890600a613eac565b6113e29087613ebb565b6113ec9190613eda565b6113f69190613eda565b949350505050565b600160009054906101000a90046001600160a01b03166001600160a01b0316630c340a246040518163ffffffff1660e01b8152600401602060405180830381865afa158015611451573d6000803e3d6000fd5b505050506040513d601f19601f820116820180604052508101906114759190613cb3565b6001600160a01b0316336001600160a01b0316146000906114a95760405162461bcd60e51b815260040161073b9190613cd0565b50600180546001600160a01b0319166001600160a01b0383169081179091556040517f2f658b440c35314f52658ea8a740e05b284cdc84dc9ae01e891f21b8933e7cad90600090a250565b6000806000806009898154811061150d5761150d613c70565b906000526020600020906006020190506000600a8a8154811061153257611532613c70565b60009182526020918290206040805160a0810182526004909302909101805460ff1615158352600181015493830193909352600283015465ffffffffffff80821692840192909252600160301b900481166060830181905260039093015460808301529092504291908216106115ea5760405162461bcd60e51b815260206004820152601c60248201527f4465706f7369746f72793a206d61726b657420636f6e636c7564656400000000604482015260640161073b565b6115f48b826129b2565b60006115ff8c612b65565b9050898111156116515760405162461bcd60e51b815260206004820152601f60248201527f4465706f7369746f72793a206d6f7265207468616e206d617820707269636500604482015260640161073b565b600b8c8154811061166457611664613c70565b60009182526020909120015461168590600160f01b900460ff16600a613eac565b817f00000000000000000000000000000000000000000000000000000000000000006001600160a01b031663313ce5676040518163ffffffff1660e01b8152600401602060405180830381865afa1580156116e4573d6000803e3d6000fd5b505050506040513d601f19601f820116820180604052508101906117089190613d78565b611713906002613e8b565b61171e90600a613eac565b611728908e613ebb565b6117329190613eda565b61173c9190613eda565b965083600301548711156117925760405162461bcd60e51b815260206004820152601d60248201527f4465706f7369746f72793a206d61782073697a65206578636565646564000000604482015260640161073b565b6001840154600160a01b900460ff166117ab57866117ad565b8a5b8460000160008282546117c09190613c9c565b909155505082516117d55782604001516117e5565b8183604001516117e59190613f65565b65ffffffffffff1695508a8460050160008282546118039190613efc565b925050819055508684600401600082825461181e9190613efc565b92505081905550868460020160008282546118399190613efc565b9091555050604080518c8152602081018390528d917f7880508a48fd3aee88f7e15917d85e39c3ad059e51ad4aca9bb46e7b4938b961910160405180910390a26118868988888f8c612bd3565b60085460018601549196506118aa916001600160a01b03908116913391168e612e6e565b8360020154836080015110156118ec5760008085556040518d917f8401d05adbea6548a6999cc1540766e6d2ff919292142862893d0e62ec79fbe591a26118f6565b6118f68c83612ece565b50505050955095509592505050565b600160009054906101000a90046001600160a01b03166001600160a01b0316630505c8c96040518163ffffffff1660e01b8152600401602060405180830381865afa158015611958573d6000803e3d6000fd5b505050506040513d601f19601f8201168201806040525081019061197c9190613cb3565b6001600160a01b0316336001600160a01b0316146000906119b05760405162461bcd60e51b815260040161073b9190613cd0565b506001600160a01b03166000908152600560205260409020805460ff19811660ff90911615179055565b600160009054906101000a90046001600160a01b03166001600160a01b0316630c340a246040518163ffffffff1660e01b8152600401602060405180830381865afa158015611a2d573d6000803e3d6000fd5b505050506040513d601f19601f82011682018060405250810190611a519190613cb3565b6001600160a01b0316336001600160a01b03161480611af75750600160009054906101000a90046001600160a01b03166001600160a01b031663452a93206040518163ffffffff1660e01b8152600401602060405180830381865afa158015611abe573d6000803e3d6000fd5b505050506040513d601f19601f82011682018060405250810190611ae29190613cb3565b6001600160a01b0316336001600160a01b0316145b80611b895750600160009054906101000a90046001600160a01b03166001600160a01b0316630505c8c96040518163ffffffff1660e01b8152600401602060405180830381865afa158015611b50573d6000803e3d6000fd5b505050506040513d601f19601f82011682018060405250810190611b749190613cb3565b6001600160a01b0316336001600160a01b0316145b611bc75760405162461bcd60e51b815260206004820152600f60248201526e13db9b1e48185d5d1a1bdc9a5e9959608a1b604482015260640161073b565b600160009054906101000a90046001600160a01b03166001600160a01b031663fbfa77cf6040518163ffffffff1660e01b8152600401602060405180830381865afa158015611c1a573d6000803e3d6000fd5b505050506040513d601f19601f82011682018060405250810190611c3e9190613cb3565b600880546001600160a01b0319166001600160a01b0392909216919091179055565b6001600160a01b0382811660009081526007602090815260408083208584529091528120549091163314611cd65760405162461bcd60e51b815260206004820152601e60248201527f4465706f7369746f72793a207472616e73666572206e6f7420666f756e640000604482015260640161073b565b6001600160a01b0383166000908152600660205260409020805483908110611d0057611d00613c70565b6000918252602090912060029091020160010154600160601b900465ffffffffffff1615611d705760405162461bcd60e51b815260206004820152601960248201527f4465706f7369746f72793a206e6f74652072656465656d656400000000000000604482015260640161073b565b503360009081526006602052604080822080546001600160a01b038616845291909220805491929184908110611da857611da8613c70565b600091825260208083208454600181810187559585528285206002948502909201805491909402909101908155918401805492909401805465ffffffffffff19811665ffffffffffff94851690811783558654600160301b908190048616026001600160601b031990921617178082558554600160601b9081900485160265ffffffffffff60601b198216811783559554600160901b9081900490941690930265ffffffffffff60901b199095166bffffffffffffffffffffffff60601b19909316929092179390931790556001600160a01b0385168152600690915260409020805483908110611e9b57611e9b613c70565b60009182526020822060029091020190815560010180546001600160c01b031916905592915050565b600080600b8381548110611eda57611eda613c70565b600091825260208083206040805160c081018252939091015465ffffffffffff8082168552600160301b82048116938501849052600160601b8204811692850192909252600160901b810482166060850152600160c01b81049091166080840152600160f01b900460ff1660a0830152909250611f579042613c9c565b9050816040015165ffffffffffff168160098681548110611f7a57611f7a613c70565b9060005260206000209060060201600201546113ec9190613ebb565b60098181548110611fa657600080fd5b60009182526020909120600690910201805460018201546002830154600384015460048501546005909501549395506001600160a01b03831694600160a01b90930460ff16939192909187565b6000611ffe82611ec4565b6009838154811061201157612011613c70565b906000526020600020906006020160020154610f359190613c9c565b600d602052816000526040600020818154811061204957600080fd5b90600052602060002001600091509150505481565b600a818154811061206e57600080fd5b6000918252602090912060049091020180546001820154600283015460039093015460ff90921693509165ffffffffffff80821692600160301b909204169085565b6001600160a01b0382166000908152600660205260408120805482918291859081106120de576120de613c70565b60009182526020918290206040805160a0810182526002909302909101805480845260019091015465ffffffffffff80821695850195909552600160301b8104851692840192909252600160601b8204841660608401819052600160901b90920490931660808301529194509150158015612165575042816040015165ffffffffffff1611155b80156121715750805115155b9150509250929050565b60606000805b6009548110156121b95761219481610eca565b156121a757816121a381613f4a565b9250505b806121b181613f4a565b915050612181565b5060008167ffffffffffffffff8111156121d5576121d5613839565b6040519080825280602002602001820160405280156121fe578160200160208202803683370190505b5090506000805b60095481101561225b5761221881610eca565b15612249578083838151811061223057612230613c70565b60209081029190910101528161224581613f4a565b9250505b8061225381613f4a565b915050612205565b50909392505050565b600042815b8451811015612340576000806122988888858151811061228b5761228b613c70565b60200260200101516120b0565b91509150801561232b576001600160a01b038816600090815260066020526040902087518591908990869081106122d1576122d1613c70565b6020026020010151815481106122e9576122e9613c70565b9060005260206000209060020201600101600c6101000a81548165ffffffffffff021916908365ffffffffffff16021790555081856123289190613efc565b94505b5050808061233890613f4a565b915050612269565b5082156123e05760405163a9059cbb60e01b81526001600160a01b038681166004830152602482018490527f0000000000000000000000000000000000000000000000000000000000000000169063a9059cbb906044016020604051808303816000875af11580156123b6573d6000803e3d6000fd5b505050506040513d601f19601f820116820180604052508101906123da9190613f2d565b50612475565b6040516339f4769360e01b81526001600160a01b038681166004830152602482018490527f000000000000000000000000000000000000000000000000000000000000000016906339f47693906044016020604051808303816000875af115801561244f573d6000803e3d6000fd5b505050506040513d601f19601f820116820180604052508101906124739190613f14565b505b509392505050565b33600090815260066020526040902080548290811061249e5761249e613c70565b600091825260209091206001600290920201015465ffffffffffff166125065760405162461bcd60e51b815260206004820152601a60248201527f4465706f7369746f72793a206e6f7465206e6f7420666f756e64000000000000604482015260640161073b565b3360009081526007602090815260408083209383529290522080546001600160a01b0319166001600160a01b0392909216919091179055565b6006602052816000526040600020818154811061255b57600080fd5b60009182526020909120600290910201805460019091015490925065ffffffffffff8082169250600160301b8204811691600160601b8104821691600160901b9091041685565b600b81815481106125b257600080fd5b60009182526020909120015465ffffffffffff8082169250600160301b8204811691600160601b8104821691600160901b8204811691600160c01b810490911690600160f01b900460ff1686565b6001600160a01b0381166000908152600660209081526040808320805482518185028101850190935280835260609493849084015b828210156126ab5760008481526020908190206040805160a081018252600286029092018054835260019081015465ffffffffffff80821685870152600160301b8204811693850193909352600160601b810483166060850152600160901b900490911660808301529083529092019101612635565b505050509050600080600090505b825181101561273a578281815181106126d4576126d4613c70565b60200260200101516060015165ffffffffffff166000148015612715575082818151811061270457612704613c70565b602002602001015160000151600014155b15612728578161272481613f4a565b9250505b8061273281613f4a565b9150506126b9565b5060008167ffffffffffffffff81111561275657612756613839565b60405190808252806020026020018201604052801561277f578160200160208202803683370190505b5090506000805b84518110156111dc578481815181106127a1576127a1613c70565b60200260200101516060015165ffffffffffff1660001480156127e257508481815181106127d1576127d1613c70565b602002602001015160000151600014155b1561281357808383815181106127fa576127fa613c70565b60209081029190910101528161280f81613f4a565b9250505b8061281d81613f4a565b915050612786565b600854604080516310c1ea0960e31b815290516000926001600160a01b03169163860f50489160048083019260209291908290030181865afa15801561286f573d6000803e3d6000fd5b505050506040513d601f19601f820116820180604052508101906128939190613f14565b600b83815481106128a6576128a6613c70565b6000918252602090912001546128c790600160f01b900460ff16600a613eac565b610f8384611ff3565b6000818152600c6020908152604080832081516080810183528154815260019091015465ffffffffffff80821694830194909452600160301b810490931691810191909152600160601b90910460ff1615156060820181905282918291612942576000806000935093509350506129ab565b60208101516129519042613f8f565b9250806040015165ffffffffffff168365ffffffffffff16109150816129785780516129a7565b806040015165ffffffffffff168365ffffffffffff16826000015161299d9190613ebb565b6129a79190613eda565b9350505b9193909250565b6129bb82611ec4565b600983815481106129ce576129ce613c70565b906000526020600020906006020160020160008282546129ee9190613c9c565b9250508190555080600b8381548110612a0957612a09613c70565b60009182526020808320909101805465ffffffffffff94909416600160301b026bffffffffffff0000000000001990941693909317909255838152600c909152604090206001015460ff600160601b909104161561103f576000828152600c60205260408120908080612a7b866128d0565b92509250925082600a8781548110612a9557612a95613c70565b90600052602060002090600402016001016000828254612ab59190613c9c565b90915550508015612b4d5782846000016000828254612ad49190613c9c565b9091555050600184018054839190600690612aff908490600160301b900465ffffffffffff16613f8f565b92506101000a81548165ffffffffffff021916908365ffffffffffff160217905550848460010160006101000a81548165ffffffffffff021916908365ffffffffffff160217905550612b5d565b60018401805460ff60601b191690555b505050505050565b6000600b8281548110612b7a57612b7a613c70565b600091825260209091200154612b9b90600160f01b900460ff16600a613eac565b612ba483613447565b600a8481548110612bb757612bb7613c70565b906000526020600020906004020160010154610f8d9190613ebb565b6001600160a01b03858116600090815260066020526040908190208054825160a08101938490526319a948db60e21b90935260a483018890529290919081907f0000000000000000000000000000000000000000000000000000000000000000166366a5236c60c48301602060405180830381865afa158015612c5a573d6000803e3d6000fd5b505050506040513d601f19601f82011682018060405250810190612c7e9190613f14565b815265ffffffffffff428116602080840191909152888216604080850191909152600060608086018290528a8516608096870152875460018181018a55988352848320885160029092020190815593870151939097018054928701519787015196909501518416600160901b0265ffffffffffff60901b19968516600160601b02969096166bffffffffffffffffffffffff60601b19978516600160301b026001600160601b03199093169390941692909217179490941617919091179055612d478684613518565b6008549091506001600160a01b03166340c10f1930612d66848a613efc565b6040516001600160e01b031960e085901b1681526001600160a01b0390921660048301526024820152604401600060405180830381600087803b158015612dac57600080fd5b505af1158015612dc0573d6000803e3d6000fd5b5050604051631b0cd93b60e31b81523060048201526024810189905260006044820152600160648201527f00000000000000000000000000000000000000000000000000000000000000006001600160a01b0316925063d866c9d891506084016020604051808303816000875af1158015612e3f573d6000803e3d6000fd5b505050506040513d601f19601f82011682018060405250810190612e639190613f14565b505095945050505050565b604080516001600160a01b0385811660248301528416604482015260648082018490528251808303909101815260849091019091526020810180516001600160e01b03166323b872dd60e01b179052612ec8908590613714565b50505050565b6000600b8381548110612ee357612ee3613c70565b60009182526020918290206040805160c081018252929091015465ffffffffffff808216808552600160301b8304821695850195909552600160601b8204811692840192909252600160901b810482166060840152600160c01b810490911660808301819052600160f01b90910460ff1660a0830152909250612f6591613f65565b65ffffffffffff168265ffffffffffff161061344257600060098481548110612f9057612f90613c70565b600091825260208083206040805160e0810182526006949094029091018054845260018101546001600160a01b03811693850193909352600160a01b90920460ff161515908301526002810154606083015260038101546080830152600481015460a08301526005015460c0820152600a805491935085918790811061301857613018613c70565b906000526020600020906004020160020160069054906101000a900465ffffffffffff166130469190613f8f565b65ffffffffffff169050600061305b86612b65565b90506000836040015161306f578351613138565b60a085015161307f90600a613eac565b827f00000000000000000000000000000000000000000000000000000000000000006001600160a01b031663313ce5676040518163ffffffff1660e01b8152600401602060405180830381865afa1580156130de573d6000803e3d6000fd5b505050506040513d601f19601f820116820180604052508101906131029190613d78565b61310d906002613e8b565b61311890600a613eac565b86516131249190613ebb565b61312e9190613eda565b6131389190613eda565b905082856060015165ffffffffffff16826131539190613ebb565b61315d9190613eda565b6009888154811061317057613170613c70565b906000526020600020906006020160030181905550600083866040015165ffffffffffff16836131a09190613ebb565b6131aa9190613eda565b9050600081600860009054906101000a90046001600160a01b03166001600160a01b031663860f50486040518163ffffffff1660e01b8152600401602060405180830381865afa158015613202573d6000803e3d6000fd5b505050506040513d601f19601f820116820180604052508101906132269190613f14565b6132309086613ebb565b61323a9190613eda565b9050887f78f9c01d72705dba80d6ce051d36a1f987bf2a3800fee938c111a2ae741e57d1600a8b8154811061327157613271613c70565b9060005260206000209060040201600101548360405161329b929190918252602082015260400190565b60405180910390a2600a89815481106132b6576132b6613c70565b90600052602060002090600402016001015481106132fc5780600a8a815481106132e2576132e2613c70565b906000526020600020906004020160010181905550613400565b600081600a8b8154811061331257613312613c70565b90600052602060002090600402016001015461332e9190613c9c565b905060405180608001604052808281526020018a65ffffffffffff168152602001896080015165ffffffffffff16815260200160011515815250600c60008c81526020019081526020016000206000820151816000015560208201518160010160006101000a81548165ffffffffffff021916908365ffffffffffff16021790555060408201518160010160066101000a81548165ffffffffffff021916908365ffffffffffff160217905550606082015181600101600c6101000a81548160ff021916908315150217905550905050505b87600b8a8154811061341457613414613c70565b6000918252602090912001805465ffffffffffff191665ffffffffffff929092169190911790555050505050505b505050565b600854604080516310c1ea0960e31b815290516000926001600160a01b03169163860f50489160048083019260209291908290030181865afa158015613491573d6000803e3d6000fd5b505050506040513d601f19601f820116820180604052508101906134b59190613f14565b600b83815481106134c8576134c8613c70565b6000918252602090912001546134e990600160f01b900460ff16600a613eac565b600984815481106134fc576134fc613c70565b906000526020600020906006020160020154610f8d9190613ebb565b6000806127106002548561352c9190613ebb565b6135369190613eda565b905060006127106003548661354b9190613ebb565b6135559190613eda565b6001600160a01b03851660009081526005602052604090205490915060ff1615613652576001600160a01b038416600090815260046020526040812080548392906135a1908490613efc565b909155505060015460408051630229549960e51b8152905184926004926000926001600160a01b039092169163452a93209180860191602091819003870181865afa1580156135f4573d6000803e3d6000fd5b505050506040513d601f19601f820116820180604052508101906136189190613cb3565b6001600160a01b03166001600160a01b0316815260200190815260200160002060008282546136479190613efc565b909155506137019050565b61365c8183613efc565b60015460408051630229549960e51b815290516004926000926001600160a01b039091169163452a93209180860191602091819003870181865afa1580156136a8573d6000803e3d6000fd5b505050506040513d601f19601f820116820180604052508101906136cc9190613cb3565b6001600160a01b03166001600160a01b0316815260200190815260200160002060008282546136fb9190613efc565b90915550505b61370b8183613efc565b95945050505050565b600080836001600160a01b03168360405161372f9190613fb6565b6000604051808303816000865af19150503d806000811461376c576040519150601f19603f3d011682016040523d82523d6000602084013e613771565b606091505b50915091506000821415613789573d6000803e3d6000fd5b805115806137a65750808060200190518101906137a69190613f2d565b612ec85760405162461bcd60e51b815260206004820152601660248201527514d0519157d15490cc8c17d0d0531317d1905253115160521b604482015260640161073b565b6001600160a01b038116811461380057600080fd5b50565b60006020828403121561381557600080fd5b8135610689816137eb565b60006020828403121561383257600080fd5b5035919050565b634e487b7160e01b600052604160045260246000fd5b6040805190810167ffffffffffffffff8111828210171561387257613872613839565b60405290565b604051601f8201601f1916810167ffffffffffffffff811182821017156138a1576138a1613839565b604052919050565b60006040516060810181811067ffffffffffffffff821117156138ce576138ce613839565b60405290508060608301848111156138e557600080fd5b835b818110156138ff5780358352602092830192016138e7565b50505092915050565b801515811461380057600080fd5b803561392181613908565b919050565b600082601f83011261393757600080fd5b61393f61384f565b80604084018581111561395157600080fd5b845b818110156111dc578035845260209384019301613953565b600082601f83011261397c57600080fd5b61398461384f565b80604084018581111561399657600080fd5b845b818110156111dc57803563ffffffff811681146139b55760008081fd5b845260209384019301613998565b600080600080600061014086880312156139dc57600080fd5b85356139e7816137eb565b94506020603f870188136139fa57600080fd5b613a06888289016138a9565b945087609f880112613a1757600080fd5b613a1f61384f565b8060c089018a811115613a3157600080fd5b60808a015b81811015613a56578035613a4981613908565b8452928401928401613a36565b50819650613a648b82613926565b955050505050613a7887610100880161396b565b90509295509295909350565b60008060408385031215613a9757600080fd5b8235613aa2816137eb565b91506020830135613ab281613908565b809150509250929050565b6020808252825182820181905260009190848201906040850190845b81811015613af557835183529284019291840191600101613ad9565b50909695505050505050565b60008060408385031215613b1457600080fd5b50508035926020909101359150565b600080600080600060a08688031215613b3b57600080fd5b8535945060208601359350604086013592506060860135613b5b816137eb565b91506080860135613b6b816137eb565b809150509295509295909350565b60008060408385031215613b8c57600080fd5b8235613b97816137eb565b946020939093013593505050565b600080600060608486031215613bba57600080fd5b8335613bc5816137eb565b925060208481013567ffffffffffffffff80821115613be357600080fd5b818701915087601f830112613bf757600080fd5b813581811115613c0957613c09613839565b8060051b9150613c1a848301613878565b818152918301840191848101908a841115613c3457600080fd5b938501935b83851015613c5257843582529385019390850190613c39565b809750505050505050613c6760408501613916565b90509250925092565b634e487b7160e01b600052603260045260246000fd5b634e487b7160e01b600052601160045260246000fd5b600082821015613cae57613cae613c86565b500390565b600060208284031215613cc557600080fd5b8151610689816137eb565b600060208083526000845481600182811c915080831680613cf257607f831692505b858310811415613d1057634e487b7160e01b85526022600452602485fd5b878601838152602001818015613d2d5760018114613d3e57613d69565b60ff19861682528782019650613d69565b60008b81526020902060005b86811015613d6357815484820152908501908901613d4a565b83019750505b50949998505050505050505050565b600060208284031215613d8a57600080fd5b815160ff8116811461068957600080fd5b600181815b80851115613dd6578160001904821115613dbc57613dbc613c86565b80851615613dc957918102915b93841c9390800290613da0565b509250929050565b600082613ded57506001610f35565b81613dfa57506000610f35565b8160018114613e105760028114613e1a57613e36565b6001915050610f35565b60ff841115613e2b57613e2b613c86565b50506001821b610f35565b5060208310610133831016604e8410600b8410161715613e59575081810a610f35565b613e638383613d9b565b8060001904821115613e7757613e77613c86565b029392505050565b60006106898383613dde565b600060ff821660ff84168160ff0481118215151615613e7757613e77613c86565b600061068960ff841683613dde565b6000816000190483118215151615613ed557613ed5613c86565b500290565b600082613ef757634e487b7160e01b600052601260045260246000fd5b500490565b60008219821115613f0f57613f0f613c86565b500190565b600060208284031215613f2657600080fd5b5051919050565b600060208284031215613f3f57600080fd5b815161068981613908565b6000600019821415613f5e57613f5e613c86565b5060010190565b600065ffffffffffff808316818516808303821115613f8657613f86613c86565b01949350505050565b600065ffffffffffff83811690831681811015613fae57613fae613c86565b039392505050565b6000825160005b81811015613fd75760208186018101518583015201613fbd565b81811115613fe6576000828501525b50919091019291505056fea264697066735822122081b393a0215a45580ed69364c6f1818bbcc854ce691e9ac4b082d23e74f1384564736f6c634300080c0033",
  "devdoc": {
    "author": "Zeus, Indigo Review by: JeffX",
    "kind": "dev",
    "methods": {
      "close(uint256)": {
        "params": {
          "_id": "ID of market to close"
        }
      },
      "create(address,uint256[3],bool[2],uint256[2],uint32[2])": {
        "details": "current price should be in 9 decimals.",
        "params": {
          "_booleans": "[capacity in quote, fixed term]",
          "_intervals": "[deposit interval (seconds), tune interval (seconds)]",
          "_market": "[capacity (in REQ or quote), initial price / REQ (18 decimals), debt buffer (3 decimals)]",
          "_quoteToken": "token used to deposit",
          "_terms": "[vesting length (if fixed term) or vested timestamp, conclusion timestamp]"
        },
        "returns": {
          "id_": "        ID of new bond market"
        }
      },
      "currentControlVariable(uint256)": {
        "details": "accounts for control variable adjustment",
        "params": {
          "_id": "ID of market"
        },
        "returns": {
          "_0": "control variable for market in REQ decimals"
        }
      },
      "currentDebt(uint256)": {
        "details": "accounts for debt decay since last deposit",
        "params": {
          "_id": "ID of market"
        },
        "returns": {
          "_0": "current debt for market in REQ decimals"
        }
      },
      "debtDecay(uint256)": {
        "params": {
          "_id": "ID of market"
        },
        "returns": {
          "_0": "amount of debt to decay"
        }
      },
      "debtRatio(uint256)": {
        "details": "uses current debt, which accounts for debt decay since last deposit (vs _debtRatio())",
        "params": {
          "_id": "ID of market"
        },
        "returns": {
          "_0": "debt ratio for market in quote decimals"
        }
      },
      "deposit(uint256,uint256,uint256,address,address)": {
        "params": {
          "_amount": "the amount of quote token to spend",
          "_id": "the ID of the market",
          "_maxPrice": "the maximum price at which to buy",
          "_referral": "the front end operator address",
          "_user": "the recipient of the payout"
        },
        "returns": {
          "expiry_": "    the timestamp at which payout is redeemable",
          "index_": "     the user index of the Note (used to redeem or query information)",
          "payout_": "    the amount of gREQ due"
        }
      },
      "indexesFor(address)": {
        "params": {
          "_user": "the user to query notes for"
        },
        "returns": {
          "_0": "the pending notes for the user"
        }
      },
      "isLive(uint256)": {
        "params": {
          "_id": "ID of market"
        }
      },
      "liveMarketsFor(address)": {
        "params": {
          "_token": "quote token to check for"
        }
      },
      "marketPrice(uint256)": {
        "details": "accounts for debt and control variable decay since last deposit (vs _marketPrice())",
        "params": {
          "_id": "ID of market"
        },
        "returns": {
          "_0": "price for market in REQ decimals price is derived from the equation p = cv * dr where p = price cv = control variable dr = debt ratio dr = d / s where d = debt s = supply of token at market creation d -= ( d * (dt / l) ) where dt = change in time l = length of program"
        }
      },
      "payoutFor(uint256,uint256)": {
        "details": "accounts for debt and control variable decay so it is up to date1e18 = req decimals (9) + market price decimals (9)",
        "params": {
          "_amount": "amount of quote tokens to spend",
          "_id": "ID of market"
        },
        "returns": {
          "_0": "amount of REQ to be paid in REQ decimals"
        }
      },
      "pendingFor(address,uint256)": {
        "params": {
          "_index": "the index of the note in the user's array",
          "_user": "the user that the note belongs to"
        },
        "returns": {
          "matured_": "   if the payout can be redeemed",
          "payout_": "    the payout due, in gREQ"
        }
      },
      "pullNote(address,uint256)": {
        "params": {
          "_from": "the address that approved the note transfer",
          "_index": "the index of the note to transfer (in the sender's array)"
        }
      },
      "pushNote(address,uint256)": {
        "params": {
          "_index": "index of note to approve transfer for",
          "_to": "address to approve note transfer for"
        }
      },
      "redeem(address,uint256[],bool)": {
        "params": {
          "_indexes": "the note indexes to redeem",
          "_sendgREQ": "send payout as gREQ or sREQ",
          "_user": "the user to redeem for"
        },
        "returns": {
          "payout_": "    sum of payout sent, in gREQ"
        }
      },
      "redeemAll(address,bool)": {
        "details": "if possible, query indexesFor() off-chain and input in redeem() to save gas",
        "params": {
          "_sendgREQ": "send payout as gREQ or sREQ",
          "_user": "user to redeem all notes for"
        },
        "returns": {
          "_0": "sum of payout sent, in gREQ"
        }
      }
    },
    "title": "Requiem Bond Depository",
    "version": 1
  },
  "userdoc": {
    "kind": "user",
    "methods": {
      "close(uint256)": {
        "notice": "disable existing market"
      },
      "create(address,uint256[3],bool[2],uint256[2],uint32[2])": {
        "notice": "creates a new market type"
      },
      "currentControlVariable(uint256)": {
        "notice": "up to date control variable"
      },
      "currentDebt(uint256)": {
        "notice": "calculate debt factoring in decay"
      },
      "debtDecay(uint256)": {
        "notice": "amount of debt to decay from total debt for market ID"
      },
      "debtRatio(uint256)": {
        "notice": "calculate current ratio of debt to supply"
      },
      "deposit(uint256,uint256,uint256,address,address)": {
        "notice": "deposit quote tokens in exchange for a bond from a specified market"
      },
      "indexesFor(address)": {
        "notice": "all pending notes for user"
      },
      "isLive(uint256)": {
        "notice": "is a given market accepting deposits"
      },
      "liveMarkets()": {
        "notice": "returns an array of all active market IDs"
      },
      "liveMarketsFor(address)": {
        "notice": "returns an array of all active market IDs for a given quote token"
      },
      "marketPrice(uint256)": {
        "notice": "calculate current market price of quote token in base token"
      },
      "payoutFor(uint256,uint256)": {
        "notice": "payout due for amount of quote tokens"
      },
      "pendingFor(address,uint256)": {
        "notice": "calculate amount available for claim for a single note"
      },
      "pullNote(address,uint256)": {
        "notice": "transfer a note that has been approved by an address"
      },
      "pushNote(address,uint256)": {
        "notice": "approve an address to transfer a note"
      },
      "redeem(address,uint256[],bool)": {
        "notice": "redeem notes for user"
      },
      "redeemAll(address,bool)": {
        "notice": "redeem all redeemable markets for user"
      },
      "setRewards(uint256,uint256)": {
        "notice": "set rewards for front end operators and DAO"
      },
      "whitelist(address)": {
        "notice": "add or remove addresses from the reward whitelist"
      }
    },
    "version": 1
  },
  "storageLayout": {
    "storage": [
      {
        "astId": 11104,
        "contract": "contracts/BondDepository.sol:BondDepository",
        "label": "UNAUTHORIZED",
        "offset": 0,
        "slot": "0",
        "type": "t_string_storage"
      },
      {
        "astId": 11107,
        "contract": "contracts/BondDepository.sol:BondDepository",
        "label": "authority",
        "offset": 0,
        "slot": "1",
        "type": "t_contract(IAuthority)7440"
      },
      {
        "astId": 11204,
        "contract": "contracts/BondDepository.sol:BondDepository",
        "label": "daoReward",
        "offset": 0,
        "slot": "2",
        "type": "t_uint256"
      },
      {
        "astId": 11206,
        "contract": "contracts/BondDepository.sol:BondDepository",
        "label": "refReward",
        "offset": 0,
        "slot": "3",
        "type": "t_uint256"
      },
      {
        "astId": 11210,
        "contract": "contracts/BondDepository.sol:BondDepository",
        "label": "rewards",
        "offset": 0,
        "slot": "4",
        "type": "t_mapping(t_address,t_uint256)"
      },
      {
        "astId": 11214,
        "contract": "contracts/BondDepository.sol:BondDepository",
        "label": "whitelisted",
        "offset": 0,
        "slot": "5",
        "type": "t_mapping(t_address,t_bool)"
      },
      {
        "astId": 11378,
        "contract": "contracts/BondDepository.sol:BondDepository",
        "label": "notes",
        "offset": 0,
        "slot": "6",
        "type": "t_mapping(t_address,t_array(t_struct(Note)7795_storage)dyn_storage)"
      },
      {
        "astId": 11384,
        "contract": "contracts/BondDepository.sol:BondDepository",
        "label": "noteTransfers",
        "offset": 0,
        "slot": "7",
        "type": "t_mapping(t_address,t_mapping(t_uint256,t_address))"
      },
      {
        "astId": 11393,
        "contract": "contracts/BondDepository.sol:BondDepository",
        "label": "treasury",
        "offset": 0,
        "slot": "8",
        "type": "t_contract(ITreasury)8594"
      },
      {
        "astId": 337,
        "contract": "contracts/BondDepository.sol:BondDepository",
        "label": "markets",
        "offset": 0,
        "slot": "9",
        "type": "t_array(t_struct(Market)7478_storage)dyn_storage"
      },
      {
        "astId": 341,
        "contract": "contracts/BondDepository.sol:BondDepository",
        "label": "terms",
        "offset": 0,
        "slot": "10",
        "type": "t_array(t_struct(Terms)7489_storage)dyn_storage"
      },
      {
        "astId": 345,
        "contract": "contracts/BondDepository.sol:BondDepository",
        "label": "metadata",
        "offset": 0,
        "slot": "11",
        "type": "t_array(t_struct(Metadata)7502_storage)dyn_storage"
      },
      {
        "astId": 350,
        "contract": "contracts/BondDepository.sol:BondDepository",
        "label": "adjustments",
        "offset": 0,
        "slot": "12",
        "type": "t_mapping(t_uint256,t_struct(Adjustment)7511_storage)"
      },
      {
        "astId": 355,
        "contract": "contracts/BondDepository.sol:BondDepository",
        "label": "marketsForQuote",
        "offset": 0,
        "slot": "13",
        "type": "t_mapping(t_address,t_array(t_uint256)dyn_storage)"
      }
    ],
    "types": {
      "t_address": {
        "encoding": "inplace",
        "label": "address",
        "numberOfBytes": "20"
      },
      "t_array(t_struct(Market)7478_storage)dyn_storage": {
        "base": "t_struct(Market)7478_storage",
        "encoding": "dynamic_array",
        "label": "struct IBondDepository.Market[]",
        "numberOfBytes": "32"
      },
      "t_array(t_struct(Metadata)7502_storage)dyn_storage": {
        "base": "t_struct(Metadata)7502_storage",
        "encoding": "dynamic_array",
        "label": "struct IBondDepository.Metadata[]",
        "numberOfBytes": "32"
      },
      "t_array(t_struct(Note)7795_storage)dyn_storage": {
        "base": "t_struct(Note)7795_storage",
        "encoding": "dynamic_array",
        "label": "struct INoteKeeper.Note[]",
        "numberOfBytes": "32"
      },
      "t_array(t_struct(Terms)7489_storage)dyn_storage": {
        "base": "t_struct(Terms)7489_storage",
        "encoding": "dynamic_array",
        "label": "struct IBondDepository.Terms[]",
        "numberOfBytes": "32"
      },
      "t_array(t_uint256)dyn_storage": {
        "base": "t_uint256",
        "encoding": "dynamic_array",
        "label": "uint256[]",
        "numberOfBytes": "32"
      },
      "t_bool": {
        "encoding": "inplace",
        "label": "bool",
        "numberOfBytes": "1"
      },
      "t_contract(IAuthority)7440": {
        "encoding": "inplace",
        "label": "contract IAuthority",
        "numberOfBytes": "20"
      },
      "t_contract(IERC20)7287": {
        "encoding": "inplace",
        "label": "contract IERC20",
        "numberOfBytes": "20"
      },
      "t_contract(ITreasury)8594": {
        "encoding": "inplace",
        "label": "contract ITreasury",
        "numberOfBytes": "20"
      },
      "t_mapping(t_address,t_array(t_struct(Note)7795_storage)dyn_storage)": {
        "encoding": "mapping",
        "key": "t_address",
        "label": "mapping(address => struct INoteKeeper.Note[])",
        "numberOfBytes": "32",
        "value": "t_array(t_struct(Note)7795_storage)dyn_storage"
      },
      "t_mapping(t_address,t_array(t_uint256)dyn_storage)": {
        "encoding": "mapping",
        "key": "t_address",
        "label": "mapping(address => uint256[])",
        "numberOfBytes": "32",
        "value": "t_array(t_uint256)dyn_storage"
      },
      "t_mapping(t_address,t_bool)": {
        "encoding": "mapping",
        "key": "t_address",
        "label": "mapping(address => bool)",
        "numberOfBytes": "32",
        "value": "t_bool"
      },
      "t_mapping(t_address,t_mapping(t_uint256,t_address))": {
        "encoding": "mapping",
        "key": "t_address",
        "label": "mapping(address => mapping(uint256 => address))",
        "numberOfBytes": "32",
        "value": "t_mapping(t_uint256,t_address)"
      },
      "t_mapping(t_address,t_uint256)": {
        "encoding": "mapping",
        "key": "t_address",
        "label": "mapping(address => uint256)",
        "numberOfBytes": "32",
        "value": "t_uint256"
      },
      "t_mapping(t_uint256,t_address)": {
        "encoding": "mapping",
        "key": "t_uint256",
        "label": "mapping(uint256 => address)",
        "numberOfBytes": "32",
        "value": "t_address"
      },
      "t_mapping(t_uint256,t_struct(Adjustment)7511_storage)": {
        "encoding": "mapping",
        "key": "t_uint256",
        "label": "mapping(uint256 => struct IBondDepository.Adjustment)",
        "numberOfBytes": "32",
        "value": "t_struct(Adjustment)7511_storage"
      },
      "t_string_storage": {
        "encoding": "bytes",
        "label": "string",
        "numberOfBytes": "32"
      },
      "t_struct(Adjustment)7511_storage": {
        "encoding": "inplace",
        "label": "struct IBondDepository.Adjustment",
        "members": [
          {
            "astId": 7504,
            "contract": "contracts/BondDepository.sol:BondDepository",
            "label": "change",
            "offset": 0,
            "slot": "0",
            "type": "t_uint256"
          },
          {
            "astId": 7506,
            "contract": "contracts/BondDepository.sol:BondDepository",
            "label": "lastAdjustment",
            "offset": 0,
            "slot": "1",
            "type": "t_uint48"
          },
          {
            "astId": 7508,
            "contract": "contracts/BondDepository.sol:BondDepository",
            "label": "timeToAdjusted",
            "offset": 6,
            "slot": "1",
            "type": "t_uint48"
          },
          {
            "astId": 7510,
            "contract": "contracts/BondDepository.sol:BondDepository",
            "label": "active",
            "offset": 12,
            "slot": "1",
            "type": "t_bool"
          }
        ],
        "numberOfBytes": "64"
      },
      "t_struct(Market)7478_storage": {
        "encoding": "inplace",
        "label": "struct IBondDepository.Market",
        "members": [
          {
            "astId": 7464,
            "contract": "contracts/BondDepository.sol:BondDepository",
            "label": "capacity",
            "offset": 0,
            "slot": "0",
            "type": "t_uint256"
          },
          {
            "astId": 7467,
            "contract": "contracts/BondDepository.sol:BondDepository",
            "label": "quoteToken",
            "offset": 0,
            "slot": "1",
            "type": "t_contract(IERC20)7287"
          },
          {
            "astId": 7469,
            "contract": "contracts/BondDepository.sol:BondDepository",
            "label": "capacityInQuote",
            "offset": 20,
            "slot": "1",
            "type": "t_bool"
          },
          {
            "astId": 7471,
            "contract": "contracts/BondDepository.sol:BondDepository",
            "label": "totalDebt",
            "offset": 0,
            "slot": "2",
            "type": "t_uint256"
          },
          {
            "astId": 7473,
            "contract": "contracts/BondDepository.sol:BondDepository",
            "label": "maxPayout",
            "offset": 0,
            "slot": "3",
            "type": "t_uint256"
          },
          {
            "astId": 7475,
            "contract": "contracts/BondDepository.sol:BondDepository",
            "label": "sold",
            "offset": 0,
            "slot": "4",
            "type": "t_uint256"
          },
          {
            "astId": 7477,
            "contract": "contracts/BondDepository.sol:BondDepository",
            "label": "purchased",
            "offset": 0,
            "slot": "5",
            "type": "t_uint256"
          }
        ],
        "numberOfBytes": "192"
      },
      "t_struct(Metadata)7502_storage": {
        "encoding": "inplace",
        "label": "struct IBondDepository.Metadata",
        "members": [
          {
            "astId": 7491,
            "contract": "contracts/BondDepository.sol:BondDepository",
            "label": "lastTune",
            "offset": 0,
            "slot": "0",
            "type": "t_uint48"
          },
          {
            "astId": 7493,
            "contract": "contracts/BondDepository.sol:BondDepository",
            "label": "lastDecay",
            "offset": 6,
            "slot": "0",
            "type": "t_uint48"
          },
          {
            "astId": 7495,
            "contract": "contracts/BondDepository.sol:BondDepository",
            "label": "length",
            "offset": 12,
            "slot": "0",
            "type": "t_uint48"
          },
          {
            "astId": 7497,
            "contract": "contracts/BondDepository.sol:BondDepository",
            "label": "depositInterval",
            "offset": 18,
            "slot": "0",
            "type": "t_uint48"
          },
          {
            "astId": 7499,
            "contract": "contracts/BondDepository.sol:BondDepository",
            "label": "tuneInterval",
            "offset": 24,
            "slot": "0",
            "type": "t_uint48"
          },
          {
            "astId": 7501,
            "contract": "contracts/BondDepository.sol:BondDepository",
            "label": "quoteDecimals",
            "offset": 30,
            "slot": "0",
            "type": "t_uint8"
          }
        ],
        "numberOfBytes": "32"
      },
      "t_struct(Note)7795_storage": {
        "encoding": "inplace",
        "label": "struct INoteKeeper.Note",
        "members": [
          {
            "astId": 7786,
            "contract": "contracts/BondDepository.sol:BondDepository",
            "label": "payout",
            "offset": 0,
            "slot": "0",
            "type": "t_uint256"
          },
          {
            "astId": 7788,
            "contract": "contracts/BondDepository.sol:BondDepository",
            "label": "created",
            "offset": 0,
            "slot": "1",
            "type": "t_uint48"
          },
          {
            "astId": 7790,
            "contract": "contracts/BondDepository.sol:BondDepository",
            "label": "matured",
            "offset": 6,
            "slot": "1",
            "type": "t_uint48"
          },
          {
            "astId": 7792,
            "contract": "contracts/BondDepository.sol:BondDepository",
            "label": "redeemed",
            "offset": 12,
            "slot": "1",
            "type": "t_uint48"
          },
          {
            "astId": 7794,
            "contract": "contracts/BondDepository.sol:BondDepository",
            "label": "marketID",
            "offset": 18,
            "slot": "1",
            "type": "t_uint48"
          }
        ],
        "numberOfBytes": "64"
      },
      "t_struct(Terms)7489_storage": {
        "encoding": "inplace",
        "label": "struct IBondDepository.Terms",
        "members": [
          {
            "astId": 7480,
            "contract": "contracts/BondDepository.sol:BondDepository",
            "label": "fixedTerm",
            "offset": 0,
            "slot": "0",
            "type": "t_bool"
          },
          {
            "astId": 7482,
            "contract": "contracts/BondDepository.sol:BondDepository",
            "label": "controlVariable",
            "offset": 0,
            "slot": "1",
            "type": "t_uint256"
          },
          {
            "astId": 7484,
            "contract": "contracts/BondDepository.sol:BondDepository",
            "label": "vesting",
            "offset": 0,
            "slot": "2",
            "type": "t_uint48"
          },
          {
            "astId": 7486,
            "contract": "contracts/BondDepository.sol:BondDepository",
            "label": "conclusion",
            "offset": 6,
            "slot": "2",
            "type": "t_uint48"
          },
          {
            "astId": 7488,
            "contract": "contracts/BondDepository.sol:BondDepository",
            "label": "maxDebt",
            "offset": 0,
            "slot": "3",
            "type": "t_uint256"
          }
        ],
        "numberOfBytes": "128"
      },
      "t_uint256": {
        "encoding": "inplace",
        "label": "uint256",
        "numberOfBytes": "32"
      },
      "t_uint48": {
        "encoding": "inplace",
        "label": "uint48",
        "numberOfBytes": "6"
      },
      "t_uint8": {
        "encoding": "inplace",
        "label": "uint8",
        "numberOfBytes": "1"
      }
    }
  }
}